{
  "_format": "hh-sol-artifact-1",
  "contractName": "CreditVault",
  "sourceName": "src/CreditVault.sol",
  "abi": [
    {
      "inputs": [
        {
          "internalType": "address",
          "name": "_scorer",
          "type": "address"
        },
        {
          "internalType": "address",
          "name": "_registry",
          "type": "address"
        }
      ],
      "stateMutability": "nonpayable",
      "type": "constructor"
    },
    {
      "inputs": [],
      "name": "ActiveLoanExists",
      "type": "error"
    },
    {
      "inputs": [
        {
          "internalType": "uint256",
          "name": "score",
          "type": "uint256"
        },
        {
          "internalType": "uint256",
          "name": "limitWei",
          "type": "uint256"
        },
        {
          "internalType": "uint256",
          "name": "requestedWei",
          "type": "uint256"
        }
      ],
      "name": "CreditLimitExceeded",
      "type": "error"
    },
    {
      "inputs": [
        {
          "internalType": "uint256",
          "name": "requestedWei",
          "type": "uint256"
        },
        {
          "internalType": "uint256",
          "name": "availableWei",
          "type": "uint256"
        }
      ],
      "name": "InsufficientPoolBalance",
      "type": "error"
    },
    {
      "inputs": [
        {
          "internalType": "uint256",
          "name": "sentWei",
          "type": "uint256"
        },
        {
          "internalType": "uint256",
          "name": "requiredWei",
          "type": "uint256"
        }
      ],
      "name": "InsufficientRepayment",
      "type": "error"
    },
    {
      "inputs": [],
      "name": "InvalidAddress",
      "type": "error"
    },
    {
      "inputs": [],
      "name": "NoActiveLoan",
      "type": "error"
    },
    {
      "inputs": [],
      "name": "NotDefaultable",
      "type": "error"
    },
    {
      "inputs": [],
      "name": "NotOwner",
      "type": "error"
    },
    {
      "inputs": [
        {
          "internalType": "address",
          "name": "recipient",
          "type": "address"
        },
        {
          "internalType": "uint256",
          "name": "amount",
          "type": "uint256"
        }
      ],
      "name": "TransferFailed",
      "type": "error"
    },
    {
      "anonymous": false,
      "inputs": [
        {
          "indexed": true,
          "internalType": "address",
          "name": "agent",
          "type": "address"
        },
        {
          "indexed": false,
          "internalType": "uint256",
          "name": "requestedWei",
          "type": "uint256"
        },
        {
          "indexed": false,
          "internalType": "bool",
          "name": "approved",
          "type": "bool"
        },
        {
          "indexed": false,
          "internalType": "uint256",
          "name": "score",
          "type": "uint256"
        },
        {
          "indexed": false,
          "internalType": "uint256",
          "name": "timestamp",
          "type": "uint256"
        }
      ],
      "name": "CreditRequested",
      "type": "event"
    },
    {
      "anonymous": false,
      "inputs": [
        {
          "indexed": true,
          "internalType": "address",
          "name": "agent",
          "type": "address"
        },
        {
          "indexed": false,
          "internalType": "bytes32",
          "name": "storageRootHash",
          "type": "bytes32"
        },
        {
          "indexed": false,
          "internalType": "bool",
          "name": "approved",
          "type": "bool"
        }
      ],
      "name": "DecisionAnchored",
      "type": "event"
    },
    {
      "anonymous": false,
      "inputs": [
        {
          "indexed": true,
          "internalType": "address",
          "name": "agent",
          "type": "address"
        },
        {
          "indexed": false,
          "internalType": "uint256",
          "name": "principal",
          "type": "uint256"
        }
      ],
      "name": "LoanDefaulted",
      "type": "event"
    },
    {
      "anonymous": false,
      "inputs": [
        {
          "indexed": true,
          "internalType": "address",
          "name": "agent",
          "type": "address"
        },
        {
          "indexed": false,
          "internalType": "uint256",
          "name": "amount",
          "type": "uint256"
        },
        {
          "indexed": false,
          "internalType": "uint256",
          "name": "dueBy",
          "type": "uint256"
        }
      ],
      "name": "LoanDisbursed",
      "type": "event"
    },
    {
      "anonymous": false,
      "inputs": [
        {
          "indexed": true,
          "internalType": "address",
          "name": "agent",
          "type": "address"
        },
        {
          "indexed": false,
          "internalType": "uint256",
          "name": "principal",
          "type": "uint256"
        },
        {
          "indexed": false,
          "internalType": "uint256",
          "name": "fee",
          "type": "uint256"
        }
      ],
      "name": "LoanRepaid",
      "type": "event"
    },
    {
      "anonymous": false,
      "inputs": [
        {
          "indexed": true,
          "internalType": "address",
          "name": "funder",
          "type": "address"
        },
        {
          "indexed": false,
          "internalType": "uint256",
          "name": "amount",
          "type": "uint256"
        }
      ],
      "name": "PoolFunded",
      "type": "event"
    },
    {
      "inputs": [],
      "name": "BPS_DENOMINATOR",
      "outputs": [
        {
          "internalType": "uint256",
          "name": "",
          "type": "uint256"
        }
      ],
      "stateMutability": "view",
      "type": "function"
    },
    {
      "inputs": [],
      "name": "REPAYMENT_FEE_BPS",
      "outputs": [
        {
          "internalType": "uint256",
          "name": "",
          "type": "uint256"
        }
      ],
      "stateMutability": "view",
      "type": "function"
    },
    {
      "inputs": [],
      "name": "REPAYMENT_WINDOW",
      "outputs": [
        {
          "internalType": "uint256",
          "name": "",
          "type": "uint256"
        }
      ],
      "stateMutability": "view",
      "type": "function"
    },
    {
      "inputs": [
        {
          "internalType": "address",
          "name": "",
          "type": "address"
        }
      ],
      "name": "activeLoans",
      "outputs": [
        {
          "internalType": "uint256",
          "name": "principal",
          "type": "uint256"
        },
        {
          "internalType": "uint256",
          "name": "issuedAt",
          "type": "uint256"
        },
        {
          "internalType": "uint256",
          "name": "dueBy",
          "type": "uint256"
        },
        {
          "internalType": "bytes32",
          "name": "storageRootHash",
          "type": "bytes32"
        },
        {
          "internalType": "bool",
          "name": "repaid",
          "type": "bool"
        },
        {
          "internalType": "bool",
          "name": "defaulted",
          "type": "bool"
        }
      ],
      "stateMutability": "view",
      "type": "function"
    },
    {
      "inputs": [
        {
          "internalType": "address",
          "name": "recipient",
          "type": "address"
        },
        {
          "internalType": "uint256",
          "name": "amountWei",
          "type": "uint256"
        }
      ],
      "name": "adminWithdraw",
      "outputs": [],
      "stateMutability": "nonpayable",
      "type": "function"
    },
    {
      "inputs": [
        {
          "internalType": "address",
          "name": "",
          "type": "address"
        }
      ],
      "name": "defaultCount",
      "outputs": [
        {
          "internalType": "uint256",
          "name": "",
          "type": "uint256"
        }
      ],
      "stateMutability": "view",
      "type": "function"
    },
    {
      "inputs": [],
      "name": "fundPool",
      "outputs": [],
      "stateMutability": "payable",
      "type": "function"
    },
    {
      "inputs": [
        {
          "internalType": "address",
          "name": "agent",
          "type": "address"
        }
      ],
      "name": "getActiveLoan",
      "outputs": [
        {
          "components": [
            {
              "internalType": "uint256",
              "name": "principal",
              "type": "uint256"
            },
            {
              "internalType": "uint256",
              "name": "issuedAt",
              "type": "uint256"
            },
            {
              "internalType": "uint256",
              "name": "dueBy",
              "type": "uint256"
            },
            {
              "internalType": "bytes32",
              "name": "storageRootHash",
              "type": "bytes32"
            },
            {
              "internalType": "bool",
              "name": "repaid",
              "type": "bool"
            },
            {
              "internalType": "bool",
              "name": "defaulted",
              "type": "bool"
            }
          ],
          "internalType": "struct CreditVault.Loan",
          "name": "",
          "type": "tuple"
        }
      ],
      "stateMutability": "view",
      "type": "function"
    },
    {
      "inputs": [
        {
          "internalType": "address",
          "name": "agent",
          "type": "address"
        }
      ],
      "name": "getCreditStatus",
      "outputs": [
        {
          "internalType": "uint256",
          "name": "score",
          "type": "uint256"
        },
        {
          "internalType": "uint256",
          "name": "limitWei",
          "type": "uint256"
        },
        {
          "internalType": "uint256",
          "name": "verifiedJobs",
          "type": "uint256"
        },
        {
          "internalType": "bool",
          "name": "hasLoan",
          "type": "bool"
        },
        {
          "internalType": "uint256",
          "name": "loanPrincipal",
          "type": "uint256"
        },
        {
          "internalType": "uint256",
          "name": "loanDueBy",
          "type": "uint256"
        },
        {
          "internalType": "uint256",
          "name": "defaults",
          "type": "uint256"
        },
        {
          "internalType": "uint256",
          "name": "repaidTotal",
          "type": "uint256"
        }
      ],
      "stateMutability": "view",
      "type": "function"
    },
    {
      "inputs": [
        {
          "internalType": "address",
          "name": "agent",
          "type": "address"
        }
      ],
      "name": "getDecisions",
      "outputs": [
        {
          "components": [
            {
              "internalType": "uint256",
              "name": "score",
              "type": "uint256"
            },
            {
              "internalType": "uint256",
              "name": "limitWei",
              "type": "uint256"
            },
            {
              "internalType": "uint256",
              "name": "requestedWei",
              "type": "uint256"
            },
            {
              "internalType": "bool",
              "name": "approved",
              "type": "bool"
            },
            {
              "internalType": "uint256",
              "name": "timestamp",
              "type": "uint256"
            },
            {
              "internalType": "bytes32",
              "name": "storageRootHash",
              "type": "bytes32"
            }
          ],
          "internalType": "struct CreditVault.CreditDecision[]",
          "name": "",
          "type": "tuple[]"
        }
      ],
      "stateMutability": "view",
      "type": "function"
    },
    {
      "inputs": [
        {
          "internalType": "address",
          "name": "agent",
          "type": "address"
        }
      ],
      "name": "hasActiveLoan",
      "outputs": [
        {
          "internalType": "bool",
          "name": "",
          "type": "bool"
        }
      ],
      "stateMutability": "view",
      "type": "function"
    },
    {
      "inputs": [],
      "name": "owner",
      "outputs": [
        {
          "internalType": "address",
          "name": "",
          "type": "address"
        }
      ],
      "stateMutability": "view",
      "type": "function"
    },
    {
      "inputs": [],
      "name": "poolBalance",
      "outputs": [
        {
          "internalType": "uint256",
          "name": "",
          "type": "uint256"
        }
      ],
      "stateMutability": "view",
      "type": "function"
    },
    {
      "inputs": [
        {
          "internalType": "address",
          "name": "agent",
          "type": "address"
        }
      ],
      "name": "processDefault",
      "outputs": [],
      "stateMutability": "nonpayable",
      "type": "function"
    },
    {
      "inputs": [],
      "name": "registry",
      "outputs": [
        {
          "internalType": "contract WorkRegistry",
          "name": "",
          "type": "address"
        }
      ],
      "stateMutability": "view",
      "type": "function"
    },
    {
      "inputs": [],
      "name": "repay",
      "outputs": [],
      "stateMutability": "payable",
      "type": "function"
    },
    {
      "inputs": [
        {
          "internalType": "uint256",
          "name": "amountWei",
          "type": "uint256"
        },
        {
          "internalType": "bytes32",
          "name": "storageRootHash",
          "type": "bytes32"
        }
      ],
      "name": "requestCredit",
      "outputs": [],
      "stateMutability": "nonpayable",
      "type": "function"
    },
    {
      "inputs": [],
      "name": "scorer",
      "outputs": [
        {
          "internalType": "contract CreditScorer",
          "name": "",
          "type": "address"
        }
      ],
      "stateMutability": "view",
      "type": "function"
    },
    {
      "inputs": [],
      "name": "totalDisbursedWei",
      "outputs": [
        {
          "internalType": "uint256",
          "name": "",
          "type": "uint256"
        }
      ],
      "stateMutability": "view",
      "type": "function"
    },
    {
      "inputs": [],
      "name": "totalRepaidToPoolWei",
      "outputs": [
        {
          "internalType": "uint256",
          "name": "",
          "type": "uint256"
        }
      ],
      "stateMutability": "view",
      "type": "function"
    },
    {
      "inputs": [
        {
          "internalType": "address",
          "name": "",
          "type": "address"
        }
      ],
      "name": "totalRepaidWei",
      "outputs": [
        {
          "internalType": "uint256",
          "name": "",
          "type": "uint256"
        }
      ],
      "stateMutability": "view",
      "type": "function"
    },
    {
      "stateMutability": "payable",
      "type": "receive"
    }
  ],
  "bytecode": "0x60e060405234801561001057600080fd5b5060405161131138038061131183398101604081905261002f916100a1565b6001600160a01b038216158061004c57506001600160a01b038116155b1561006a5760405163e6c4247b60e01b815260040160405180910390fd5b6001600160a01b039182166080521660a0523360c0526100d4565b80516001600160a01b038116811461009c57600080fd5b919050565b600080604083850312156100b457600080fd5b6100bd83610085565b91506100cb60208401610085565b90509250929050565b60805160a05160c0516111f261011f6000396000818161046901526106200152600081816103e9015261096e015260008181610435015281816108b00152610ccb01526111f26000f3fe60806040526004361061012e5760003560e01c806378c3fa4c116100ab578063a131a2fa1161006f578063a131a2fa1461049e578063ba649839146104cb578063bbd48e1c14610552578063e1a4521814610572578063f87ecacf14610588578063f9847cc01461059e57600080fd5b806378c3fa4c146103b75780637b103999146103d757806385c758f7146104235780638da5cb5b1461045757806396365d441461048b57600080fd5b80634ea733e5116100f25780634ea733e51461021f5780635e4b56b41461027a5780635ee0108e146102905780636010ba64146102a757806370f37d27146103af57600080fd5b806314018e2f1461016f57806321d4f8db14610198578063401d4482146101c8578063402d8883146101ea57806342d46186146101f257600080fd5b3661016a5760405134815233907f32173d8e51cec3a6fe484b7a1c3febe760cdf96e03d4cca36a43563a4333e8389060200160405180910390a2005b600080fd5b34801561017b57600080fd5b5061018560055481565b6040519081526020015b60405180910390f35b3480156101a457600080fd5b506101b86101b3366004611023565b6105cb565b604051901515815260200161018f565b3480156101d457600080fd5b506101e86101e336600461103e565b610615565b005b6101e86106ee565b3480156101fe57600080fd5b5061018561020d366004611023565b60036020526000908152604090205481565b34801561022b57600080fd5b5061023f61023a366004611023565b6108a2565b604080519889526020890197909752958701949094529115156060860152608085015260a084015260c083015260e08201526101000161018f565b34801561028657600080fd5b506101856101f481565b34801561029c57600080fd5b5061018562093a8081565b3480156102b357600080fd5b5061035f6102c2366004611023565b6040805160c081018252600080825260208201819052918101829052606081018290526080810182905260a0810191909152506001600160a01b031660009081526020818152604091829020825160c081018452815481526001820154928101929092526002810154928201929092526003820154606082015260049091015460ff8082161515608084015261010090910416151560a082015290565b60405161018f9190600060c0820190508251825260208301516020830152604083015160408301526060830151606083015260808301511515608083015260a0830151151560a083015292915050565b6101e8610a83565b3480156103c357600080fd5b506101e86103d2366004611023565b610aba565b3480156103e357600080fd5b5061040b7f000000000000000000000000000000000000000000000000000000000000000081565b6040516001600160a01b03909116815260200161018f565b34801561042f57600080fd5b5061040b7f000000000000000000000000000000000000000000000000000000000000000081565b34801561046357600080fd5b5061040b7f000000000000000000000000000000000000000000000000000000000000000081565b34801561049757600080fd5b5047610185565b3480156104aa57600080fd5b506104be6104b9366004611023565b610ba1565b60405161018f9190611068565b3480156104d757600080fd5b506105216104e6366004611023565b600060208190529081526040902080546001820154600283015460038401546004909401549293919290919060ff8082169161010090041686565b60408051968752602087019590955293850192909252606084015215156080830152151560a082015260c00161018f565b34801561055e57600080fd5b506101e861056d3660046110e2565b610c51565b34801561057e57600080fd5b5061018561271081565b34801561059457600080fd5b5061018560045481565b3480156105aa57600080fd5b506101856105b9366004611023565b60026020526000908152604090205481565b6001600160a01b03811660009081526020819052604081208054158015906105f85750600481015460ff16155b801561060e57506004810154610100900460ff16155b9392505050565b336001600160a01b037f0000000000000000000000000000000000000000000000000000000000000000161461065e576040516330cd747160e01b815260040160405180910390fd5b6000826001600160a01b03168260405160006040518083038185875af1925050503d80600081146106ab576040519150601f19603f3d011682016040523d82523d6000602084013e6106b0565b606091505b50509050806106e957604051630e21dcbb60e11b81526001600160a01b0384166004820152602481018390526044015b60405180910390fd5b505050565b3360009081526020819052604090208054158061070f5750600481015460ff165b8061072357506004810154610100900460ff165b15610741576040516301c8bc7760e21b815260040160405180910390fd5b60006127106101f48360000154610758919061111a565b6107629190611137565b905060008183600001546107769190611159565b9050803410156107a257604051639c055a7760e01b8152346004820152602481018290526044016106e0565b825460048401805460ff1916600117905533600081815260026020526040908190208054840190556005805484019055517fc7ce0a35f17b490de2a317e7fecb2cae86b1abffb03800b2f4928235213826989061080b9084908790918252602082015260400190565b60405180910390a2600061081f833461116c565b9050801561089b57604051600090339083908381818185875af1925050503d8060008114610869576040519150601f19603f3d011682016040523d82523d6000602084013e61086e565b606091505b505090508061089957604051630e21dcbb60e11b8152336004820152602481018390526044016106e0565b505b5050505050565b6000806000806000806000807f00000000000000000000000000000000000000000000000000000000000000006001600160a01b03166323e957b68a6040518263ffffffff1660e01b815260040161090991906001600160a01b0391909116815260200190565b6040805180830381865afa158015610925573d6000803e3d6000fd5b505050506040513d601f19601f82011682018060405250810190610949919061117f565b604051635be7e57f60e01b81526001600160a01b038c81166004830152929a509098507f000000000000000000000000000000000000000000000000000000000000000090911690635be7e57f90602401602060405180830381865afa1580156109b7573d6000803e3d6000fd5b505050506040513d601f19601f820116820180604052508101906109db91906111a3565b6001600160a01b038a16600090815260208190526040902080549197509015801590610a0c5750600481015460ff16155b8015610a2257506004810154610100900460ff16155b955085610a30576000610a33565b80545b945085610a41576000610a47565b80600201545b6001600160a01b03909a16600090815260036020908152604080832054600290925290912054999b989a97999698959796909590945092505050565b60405134815233907f32173d8e51cec3a6fe484b7a1c3febe760cdf96e03d4cca36a43563a4333e8389060200160405180910390a2565b6001600160a01b0381166000908152602081905260408120805490919015801590610aea5750600482015460ff16155b8015610b0057506004820154610100900460ff16155b8015610b0f5750816002015442115b905080610b2f57604051631dfa547960e21b815260040160405180910390fd5b60048201805461ff0019166101001790556001600160a01b0383166000818152600360205260409081902080546001019055835490517f0be253503c49f8fb02046da3ef57bc2f5f881eb14ba5c2c26b54bf2fb4e7db0791610b949190815260200190565b60405180910390a2505050565b6001600160a01b0381166000908152600160209081526040808320805482518185028101850190935280835260609492939192909184015b82821015610c465760008481526020908190206040805160c081018252600686029092018054835260018082015484860152600282015492840192909252600381015460ff1615156060840152600481015460808401526005015460a08301529083529092019101610bd9565b505050509050919050565b336000908152602081905260409020805415801590610c755750600481015460ff16155b8015610c8b57506004810154610100900460ff16155b15610ca957604051632179f9db60e21b815260040160405180910390fd5b6040516311f4abdb60e11b815233600482015260009081906001600160a01b037f000000000000000000000000000000000000000000000000000000000000000016906323e957b6906024016040805180830381865afa158015610d11573d6000803e3d6000fd5b505050506040513d601f19601f82011682018060405250810190610d35919061117f565b9150915080851115610d6b57604051631ff5a4bf60e21b81526004810183905260248101829052604481018690526064016106e0565b47851115610d955760405163ce9514f960e01b8152600481018690524760248201526044016106e0565b336000908152600160208181526040808420815160c0810183528781528084018781529281018b815260608201868152426080840181815260a085018e81528654808b018855968b52978a2094516006909602909401948555945196840196909655516002830155935160038201805460ff1916911515919091179055925160048401559051600590920191909155610e329062093a8090611159565b6040805160c081018252888152426020808301828152838501868152606085018c815260006080870181815260a088018281523380845296839052918990209751885593516001888101919091559251600288015590516003870155915160049586018054935115156101000261ff00199215159290921661ffff19909416939093171790915583548c01909355925193945091927fb836dd526acf8a4722ede71525ee21a5d3ca53539bd91c83d8da9419dc677b8192610f0e928b929091899193845291151560208401526040830152606082015260800190565b60405180910390a2604080518681526001602082015233917f168e54ca312cae993242fa00582b750de023bf8b7ed1ca9e14aeb81ee0fb9e70910160405180910390a2604080518781526020810183905233917f5660f932172e1664b98577a703dd9484d374b28e3bf8c87b345bee97af612412910160405180910390a2604051600090339088908381818185875af1925050503d8060008114610fce576040519150601f19603f3d011682016040523d82523d6000602084013e610fd3565b606091505b5050905080610ffe57604051630e21dcbb60e11b8152336004820152602481018890526044016106e0565b50505050505050565b80356001600160a01b038116811461101e57600080fd5b919050565b60006020828403121561103557600080fd5b61060e82611007565b6000806040838503121561105157600080fd5b61105a83611007565b946020939093013593505050565b602080825282518282018190526000919060409081850190868401855b828110156110d557815180518552868101518786015285810151868601526060808201511515908601526080808201519086015260a0908101519085015260c09093019290850190600101611085565b5091979650505050505050565b600080604083850312156110f557600080fd5b50508035926020909101359150565b634e487b7160e01b600052601160045260246000fd5b808202811582820484141761113157611131611104565b92915050565b60008261115457634e487b7160e01b600052601260045260246000fd5b500490565b8082018082111561113157611131611104565b8181038181111561113157611131611104565b6000806040838503121561119257600080fd5b505080516020909101519092909150565b6000602082840312156111b557600080fd5b505191905056fea26469706673582212204fbaa8b04859cfc59f4b0654db72268b15c0bace4b66777c7fb228600886580964736f6c63430008130033",
  "linkReferences": {},
  "deployedLinkReferences": {}
}