{"src/CreditVault.sol":{"CreditVault":{"abi":[{"inputs":[{"internalType":"address","name":"_scorer","type":"address"},{"internalType":"address","name":"_registry","type":"address"}],"stateMutability":"nonpayable","type":"constructor"},{"inputs":[],"name":"ActiveLoanExists","type":"error"},{"inputs":[{"internalType":"uint256","name":"score","type":"uint256"},{"internalType":"uint256","name":"limitWei","type":"uint256"},{"internalType":"uint256","name":"requestedWei","type":"uint256"}],"name":"CreditLimitExceeded","type":"error"},{"inputs":[{"internalType":"uint256","name":"requestedWei","type":"uint256"},{"internalType":"uint256","name":"availableWei","type":"uint256"}],"name":"InsufficientPoolBalance","type":"error"},{"inputs":[{"internalType":"uint256","name":"sentWei","type":"uint256"},{"internalType":"uint256","name":"requiredWei","type":"uint256"}],"name":"InsufficientRepayment","type":"error"},{"inputs":[],"name":"InvalidAddress","type":"error"},{"inputs":[],"name":"NoActiveLoan","type":"error"},{"inputs":[],"name":"NotDefaultable","type":"error"},{"inputs":[],"name":"NotOwner","type":"error"},{"inputs":[{"internalType":"address","name":"recipient","type":"address"},{"internalType":"uint256","name":"amount","type":"uint256"}],"name":"TransferFailed","type":"error"},{"anonymous":false,"inputs":[{"indexed":true,"internalType":"address","name":"agent","type":"address"},{"indexed":false,"internalType":"uint256","name":"requestedWei","type":"uint256"},{"indexed":false,"internalType":"bool","name":"approved","type":"bool"},{"indexed":false,"internalType":"uint256","name":"score","type":"uint256"},{"indexed":false,"internalType":"uint256","name":"timestamp","type":"uint256"}],"name":"CreditRequested","type":"event"},{"anonymous":false,"inputs":[{"indexed":true,"internalType":"address","name":"agent","type":"address"},{"indexed":false,"internalType":"bytes32","name":"storageRootHash","type":"bytes32"},{"indexed":false,"internalType":"bool","name":"approved","type":"bool"}],"name":"DecisionAnchored","type":"event"},{"anonymous":false,"inputs":[{"indexed":true,"internalType":"address","name":"agent","type":"address"},{"indexed":false,"internalType":"uint256","name":"principal","type":"uint256"}],"name":"LoanDefaulted","type":"event"},{"anonymous":false,"inputs":[{"indexed":true,"internalType":"address","name":"agent","type":"address"},{"indexed":false,"internalType":"uint256","name":"amount","type":"uint256"},{"indexed":false,"internalType":"uint256","name":"dueBy","type":"uint256"}],"name":"LoanDisbursed","type":"event"},{"anonymous":false,"inputs":[{"indexed":true,"internalType":"address","name":"agent","type":"address"},{"indexed":false,"internalType":"uint256","name":"principal","type":"uint256"},{"indexed":false,"internalType":"uint256","name":"fee","type":"uint256"}],"name":"LoanRepaid","type":"event"},{"anonymous":false,"inputs":[{"indexed":true,"internalType":"address","name":"funder","type":"address"},{"indexed":false,"internalType":"uint256","name":"amount","type":"uint256"}],"name":"PoolFunded","type":"event"},{"inputs":[],"name":"BPS_DENOMINATOR","outputs":[{"internalType":"uint256","name":"","type":"uint256"}],"stateMutability":"view","type":"function"},{"inputs":[],"name":"REPAYMENT_FEE_BPS","outputs":[{"internalType":"uint256","name":"","type":"uint256"}],"stateMutability":"view","type":"function"},{"inputs":[],"name":"REPAYMENT_WINDOW","outputs":[{"internalType":"uint256","name":"","type":"uint256"}],"stateMutability":"view","type":"function"},{"inputs":[{"internalType":"address","name":"","type":"address"}],"name":"activeLoans","outputs":[{"internalType":"uint256","name":"principal","type":"uint256"},{"internalType":"uint256","name":"issuedAt","type":"uint256"},{"internalType":"uint256","name":"dueBy","type":"uint256"},{"internalType":"bytes32","name":"storageRootHash","type":"bytes32"},{"internalType":"bool","name":"repaid","type":"bool"},{"internalType":"bool","name":"defaulted","type":"bool"}],"stateMutability":"view","type":"function"},{"inputs":[{"internalType":"address","name":"recipient","type":"address"},{"internalType":"uint256","name":"amountWei","type":"uint256"}],"name":"adminWithdraw","outputs":[],"stateMutability":"nonpayable","type":"function"},{"inputs":[{"internalType":"address","name":"","type":"address"}],"name":"defaultCount","outputs":[{"internalType":"uint256","name":"","type":"uint256"}],"stateMutability":"view","type":"function"},{"inputs":[],"name":"fundPool","outputs":[],"stateMutability":"payable","type":"function"},{"inputs":[{"internalType":"address","name":"agent","type":"address"}],"name":"getActiveLoan","outputs":[{"components":[{"internalType":"uint256","name":"principal","type":"uint256"},{"internalType":"uint256","name":"issuedAt","type":"uint256"},{"internalType":"uint256","name":"dueBy","type":"uint256"},{"internalType":"bytes32","name":"storageRootHash","type":"bytes32"},{"internalType":"bool","name":"repaid","type":"bool"},{"internalType":"bool","name":"defaulted","type":"bool"}],"internalType":"struct CreditVault.Loan","name":"","type":"tuple"}],"stateMutability":"view","type":"function"},{"inputs":[{"internalType":"address","name":"agent","type":"address"}],"name":"getCreditStatus","outputs":[{"internalType":"uint256","name":"score","type":"uint256"},{"internalType":"uint256","name":"limitWei","type":"uint256"},{"internalType":"uint256","name":"verifiedJobs","type":"uint256"},{"internalType":"bool","name":"hasLoan","type":"bool"},{"internalType":"uint256","name":"loanPrincipal","type":"uint256"},{"internalType":"uint256","name":"loanDueBy","type":"uint256"},{"internalType":"uint256","name":"defaults","type":"uint256"},{"internalType":"uint256","name":"repaidTotal","type":"uint256"}],"stateMutability":"view","type":"function"},{"inputs":[{"internalType":"address","name":"agent","type":"address"}],"name":"getDecisions","outputs":[{"components":[{"internalType":"uint256","name":"score","type":"uint256"},{"internalType":"uint256","name":"limitWei","type":"uint256"},{"internalType":"uint256","name":"requestedWei","type":"uint256"},{"internalType":"bool","name":"approved","type":"bool"},{"internalType":"uint256","name":"timestamp","type":"uint256"},{"internalType":"bytes32","name":"storageRootHash","type":"bytes32"}],"internalType":"struct CreditVault.CreditDecision[]","name":"","type":"tuple[]"}],"stateMutability":"view","type":"function"},{"inputs":[{"internalType":"address","name":"agent","type":"address"}],"name":"hasActiveLoan","outputs":[{"internalType":"bool","name":"","type":"bool"}],"stateMutability":"view","type":"function"},{"inputs":[],"name":"owner","outputs":[{"internalType":"address","name":"","type":"address"}],"stateMutability":"view","type":"function"},{"inputs":[],"name":"poolBalance","outputs":[{"internalType":"uint256","name":"","type":"uint256"}],"stateMutability":"view","type":"function"},{"inputs":[{"internalType":"address","name":"agent","type":"address"}],"name":"processDefault","outputs":[],"stateMutability":"nonpayable","type":"function"},{"inputs":[],"name":"registry","outputs":[{"internalType":"contract WorkRegistry","name":"","type":"address"}],"stateMutability":"view","type":"function"},{"inputs":[],"name":"repay","outputs":[],"stateMutability":"payable","type":"function"},{"inputs":[{"internalType":"uint256","name":"amountWei","type":"uint256"},{"internalType":"bytes32","name":"storageRootHash","type":"bytes32"}],"name":"requestCredit","outputs":[],"stateMutability":"nonpayable","type":"function"},{"inputs":[],"name":"scorer","outputs":[{"internalType":"contract CreditScorer","name":"","type":"address"}],"stateMutability":"view","type":"function"},{"inputs":[],"name":"totalDisbursedWei","outputs":[{"internalType":"uint256","name":"","type":"uint256"}],"stateMutability":"view","type":"function"},{"inputs":[],"name":"totalRepaidToPoolWei","outputs":[{"internalType":"uint256","name":"","type":"uint256"}],"stateMutability":"view","type":"function"},{"inputs":[{"internalType":"address","name":"","type":"address"}],"name":"totalRepaidWei","outputs":[{"internalType":"uint256","name":"","type":"uint256"}],"stateMutability":"view","type":"function"},{"stateMutability":"payable","type":"receive"}],"evm":{"bytecode":{"linkReferences":{},"object":"60e060405234801561001057600080fd5b5060405161131138038061131183398101604081905261002f916100a1565b6001600160a01b038216158061004c57506001600160a01b038116155b1561006a5760405163e6c4247b60e01b815260040160405180910390fd5b6001600160a01b039182166080521660a0523360c0526100d4565b80516001600160a01b038116811461009c57600080fd5b919050565b600080604083850312156100b457600080fd5b6100bd83610085565b91506100cb60208401610085565b90509250929050565b60805160a05160c0516111f261011f6000396000818161046901526106200152600081816103e9015261096e015260008181610435015281816108b00152610ccb01526111f26000f3fe60806040526004361061012e5760003560e01c806378c3fa4c116100ab578063a131a2fa1161006f578063a131a2fa1461049e578063ba649839146104cb578063bbd48e1c14610552578063e1a4521814610572578063f87ecacf14610588578063f9847cc01461059e57600080fd5b806378c3fa4c146103b75780637b103999146103d757806385c758f7146104235780638da5cb5b1461045757806396365d441461048b57600080fd5b80634ea733e5116100f25780634ea733e51461021f5780635e4b56b41461027a5780635ee0108e146102905780636010ba64146102a757806370f37d27146103af57600080fd5b806314018e2f1461016f57806321d4f8db14610198578063401d4482146101c8578063402d8883146101ea57806342d46186146101f257600080fd5b3661016a5760405134815233907f32173d8e51cec3a6fe484b7a1c3febe760cdf96e03d4cca36a43563a4333e8389060200160405180910390a2005b600080fd5b34801561017b57600080fd5b5061018560055481565b6040519081526020015b60405180910390f35b3480156101a457600080fd5b506101b86101b3366004611023565b6105cb565b604051901515815260200161018f565b3480156101d457600080fd5b506101e86101e336600461103e565b610615565b005b6101e86106ee565b3480156101fe57600080fd5b5061018561020d366004611023565b60036020526000908152604090205481565b34801561022b57600080fd5b5061023f61023a366004611023565b6108a2565b604080519889526020890197909752958701949094529115156060860152608085015260a084015260c083015260e08201526101000161018f565b34801561028657600080fd5b506101856101f481565b34801561029c57600080fd5b5061018562093a8081565b3480156102b357600080fd5b5061035f6102c2366004611023565b6040805160c081018252600080825260208201819052918101829052606081018290526080810182905260a0810191909152506001600160a01b031660009081526020818152604091829020825160c081018452815481526001820154928101929092526002810154928201929092526003820154606082015260049091015460ff8082161515608084015261010090910416151560a082015290565b60405161018f9190600060c0820190508251825260208301516020830152604083015160408301526060830151606083015260808301511515608083015260a0830151151560a083015292915050565b6101e8610a83565b3480156103c357600080fd5b506101e86103d2366004611023565b610aba565b3480156103e357600080fd5b5061040b7f000000000000000000000000000000000000000000000000000000000000000081565b6040516001600160a01b03909116815260200161018f565b34801561042f57600080fd5b5061040b7f000000000000000000000000000000000000000000000000000000000000000081565b34801561046357600080fd5b5061040b7f000000000000000000000000000000000000000000000000000000000000000081565b34801561049757600080fd5b5047610185565b3480156104aa57600080fd5b506104be6104b9366004611023565b610ba1565b60405161018f9190611068565b3480156104d757600080fd5b506105216104e6366004611023565b600060208190529081526040902080546001820154600283015460038401546004909401549293919290919060ff8082169161010090041686565b60408051968752602087019590955293850192909252606084015215156080830152151560a082015260c00161018f565b34801561055e57600080fd5b506101e861056d3660046110e2565b610c51565b34801561057e57600080fd5b5061018561271081565b34801561059457600080fd5b5061018560045481565b3480156105aa57600080fd5b506101856105b9366004611023565b60026020526000908152604090205481565b6001600160a01b03811660009081526020819052604081208054158015906105f85750600481015460ff16155b801561060e57506004810154610100900460ff16155b9392505050565b336001600160a01b037f0000000000000000000000000000000000000000000000000000000000000000161461065e576040516330cd747160e01b815260040160405180910390fd5b6000826001600160a01b03168260405160006040518083038185875af1925050503d80600081146106ab576040519150601f19603f3d011682016040523d82523d6000602084013e6106b0565b606091505b50509050806106e957604051630e21dcbb60e11b81526001600160a01b0384166004820152602481018390526044015b60405180910390fd5b505050565b3360009081526020819052604090208054158061070f5750600481015460ff165b8061072357506004810154610100900460ff165b15610741576040516301c8bc7760e21b815260040160405180910390fd5b60006127106101f48360000154610758919061111a565b6107629190611137565b905060008183600001546107769190611159565b9050803410156107a257604051639c055a7760e01b8152346004820152602481018290526044016106e0565b825460048401805460ff1916600117905533600081815260026020526040908190208054840190556005805484019055517fc7ce0a35f17b490de2a317e7fecb2cae86b1abffb03800b2f4928235213826989061080b9084908790918252602082015260400190565b60405180910390a2600061081f833461116c565b9050801561089b57604051600090339083908381818185875af1925050503d8060008114610869576040519150601f19603f3d011682016040523d82523d6000602084013e61086e565b606091505b505090508061089957604051630e21dcbb60e11b8152336004820152602481018390526044016106e0565b505b5050505050565b6000806000806000806000807f00000000000000000000000000000000000000000000000000000000000000006001600160a01b03166323e957b68a6040518263ffffffff1660e01b815260040161090991906001600160a01b0391909116815260200190565b6040805180830381865afa158015610925573d6000803e3d6000fd5b505050506040513d601f19601f82011682018060405250810190610949919061117f565b604051635be7e57f60e01b81526001600160a01b038c81166004830152929a509098507f000000000000000000000000000000000000000000000000000000000000000090911690635be7e57f90602401602060405180830381865afa1580156109b7573d6000803e3d6000fd5b505050506040513d601f19601f820116820180604052508101906109db91906111a3565b6001600160a01b038a16600090815260208190526040902080549197509015801590610a0c5750600481015460ff16155b8015610a2257506004810154610100900460ff16155b955085610a30576000610a33565b80545b945085610a41576000610a47565b80600201545b6001600160a01b03909a16600090815260036020908152604080832054600290925290912054999b989a97999698959796909590945092505050565b60405134815233907f32173d8e51cec3a6fe484b7a1c3febe760cdf96e03d4cca36a43563a4333e8389060200160405180910390a2565b6001600160a01b0381166000908152602081905260408120805490919015801590610aea5750600482015460ff16155b8015610b0057506004820154610100900460ff16155b8015610b0f5750816002015442115b905080610b2f57604051631dfa547960e21b815260040160405180910390fd5b60048201805461ff0019166101001790556001600160a01b0383166000818152600360205260409081902080546001019055835490517f0be253503c49f8fb02046da3ef57bc2f5f881eb14ba5c2c26b54bf2fb4e7db0791610b949190815260200190565b60405180910390a2505050565b6001600160a01b0381166000908152600160209081526040808320805482518185028101850190935280835260609492939192909184015b82821015610c465760008481526020908190206040805160c081018252600686029092018054835260018082015484860152600282015492840192909252600381015460ff1615156060840152600481015460808401526005015460a08301529083529092019101610bd9565b505050509050919050565b336000908152602081905260409020805415801590610c755750600481015460ff16155b8015610c8b57506004810154610100900460ff16155b15610ca957604051632179f9db60e21b815260040160405180910390fd5b6040516311f4abdb60e11b815233600482015260009081906001600160a01b037f000000000000000000000000000000000000000000000000000000000000000016906323e957b6906024016040805180830381865afa158015610d11573d6000803e3d6000fd5b505050506040513d601f19601f82011682018060405250810190610d35919061117f565b9150915080851115610d6b57604051631ff5a4bf60e21b81526004810183905260248101829052604481018690526064016106e0565b47851115610d955760405163ce9514f960e01b8152600481018690524760248201526044016106e0565b336000908152600160208181526040808420815160c0810183528781528084018781529281018b815260608201868152426080840181815260a085018e81528654808b018855968b52978a2094516006909602909401948555945196840196909655516002830155935160038201805460ff1916911515919091179055925160048401559051600590920191909155610e329062093a8090611159565b6040805160c081018252888152426020808301828152838501868152606085018c815260006080870181815260a088018281523380845296839052918990209751885593516001888101919091559251600288015590516003870155915160049586018054935115156101000261ff00199215159290921661ffff19909416939093171790915583548c01909355925193945091927fb836dd526acf8a4722ede71525ee21a5d3ca53539bd91c83d8da9419dc677b8192610f0e928b929091899193845291151560208401526040830152606082015260800190565b60405180910390a2604080518681526001602082015233917f168e54ca312cae993242fa00582b750de023bf8b7ed1ca9e14aeb81ee0fb9e70910160405180910390a2604080518781526020810183905233917f5660f932172e1664b98577a703dd9484d374b28e3bf8c87b345bee97af612412910160405180910390a2604051600090339088908381818185875af1925050503d8060008114610fce576040519150601f19603f3d011682016040523d82523d6000602084013e610fd3565b606091505b5050905080610ffe57604051630e21dcbb60e11b8152336004820152602481018890526044016106e0565b50505050505050565b80356001600160a01b038116811461101e57600080fd5b919050565b60006020828403121561103557600080fd5b61060e82611007565b6000806040838503121561105157600080fd5b61105a83611007565b946020939093013593505050565b602080825282518282018190526000919060409081850190868401855b828110156110d557815180518552868101518786015285810151868601526060808201511515908601526080808201519086015260a0908101519085015260c09093019290850190600101611085565b5091979650505050505050565b600080604083850312156110f557600080fd5b50508035926020909101359150565b634e487b7160e01b600052601160045260246000fd5b808202811582820484141761113157611131611104565b92915050565b60008261115457634e487b7160e01b600052601260045260246000fd5b500490565b8082018082111561113157611131611104565b8181038181111561113157611131611104565b6000806040838503121561119257600080fd5b505080516020909101519092909150565b6000602082840312156111b557600080fd5b505191905056fea26469706673582212204fbaa8b04859cfc59f4b0654db72268b15c0bace4b66777c7fb228600886580964736f6c63430008130033","opcodes":"PUSH1 0xE0 PUSH1 0x40 MSTORE CALLVALUE DUP1 ISZERO PUSH2 0x10 JUMPI PUSH1 0x0 DUP1 REVERT JUMPDEST POP PUSH1 0x40 MLOAD PUSH2 0x1311 CODESIZE SUB DUP1 PUSH2 0x1311 DUP4 CODECOPY DUP2 ADD PUSH1 0x40 DUP2 SWAP1 MSTORE PUSH2 0x2F SWAP2 PUSH2 0xA1 JUMP JUMPDEST PUSH1 0x1 PUSH1 0x1 PUSH1 0xA0 SHL SUB DUP3 AND ISZERO DUP1 PUSH2 0x4C JUMPI POP PUSH1 0x1 PUSH1 0x1 PUSH1 0xA0 SHL SUB DUP2 AND ISZERO JUMPDEST ISZERO PUSH2 0x6A JUMPI PUSH1 0x40 MLOAD PUSH4 0xE6C4247B PUSH1 0xE0 SHL DUP2 MSTORE PUSH1 0x4 ADD PUSH1 0x40 MLOAD DUP1 SWAP2 SUB SWAP1 REVERT JUMPDEST PUSH1 0x1 PUSH1 0x1 PUSH1 0xA0 SHL SUB SWAP2 DUP3 AND PUSH1 0x80 MSTORE AND PUSH1 0xA0 MSTORE CALLER PUSH1 0xC0 MSTORE PUSH2 0xD4 JUMP JUMPDEST DUP1 MLOAD PUSH1 0x1 PUSH1 0x1 PUSH1 0xA0 SHL SUB DUP2 AND DUP2 EQ PUSH2 0x9C JUMPI PUSH1 0x0 DUP1 REVERT JUMPDEST SWAP2 SWAP1 POP JUMP JUMPDEST PUSH1 0x0 DUP1 PUSH1 0x40 DUP4 DUP6 SUB SLT ISZERO PUSH2 0xB4 JUMPI PUSH1 0x0 DUP1 REVERT JUMPDEST PUSH2 0xBD DUP4 PUSH2 0x85 JUMP JUMPDEST SWAP2 POP PUSH2 0xCB PUSH1 0x20 DUP5 ADD PUSH2 0x85 JUMP JUMPDEST SWAP1 POP SWAP3 POP SWAP3 SWAP1 POP JUMP JUMPDEST PUSH1 0x80 MLOAD PUSH1 0xA0 MLOAD PUSH1 0xC0 MLOAD PUSH2 0x11F2 PUSH2 0x11F PUSH1 0x0 CODECOPY PUSH1 0x0 DUP2 DUP2 PUSH2 0x469 ADD MSTORE PUSH2 0x620 ADD MSTORE PUSH1 0x0 DUP2 DUP2 PUSH2 0x3E9 ADD MSTORE PUSH2 0x96E ADD MSTORE PUSH1 0x0 DUP2 DUP2 PUSH2 0x435 ADD MSTORE DUP2 DUP2 PUSH2 0x8B0 ADD MSTORE PUSH2 0xCCB ADD MSTORE PUSH2 0x11F2 PUSH1 0x0 RETURN INVALID PUSH1 0x80 PUSH1 0x40 MSTORE PUSH1 0x4 CALLDATASIZE LT PUSH2 0x12E JUMPI PUSH1 0x0 CALLDATALOAD PUSH1 0xE0 SHR DUP1 PUSH4 0x78C3FA4C GT PUSH2 0xAB JUMPI DUP1 PUSH4 0xA131A2FA GT PUSH2 0x6F JUMPI DUP1 PUSH4 0xA131A2FA EQ PUSH2 0x49E JUMPI DUP1 PUSH4 0xBA649839 EQ PUSH2 0x4CB JUMPI DUP1 PUSH4 0xBBD48E1C EQ PUSH2 0x552 JUMPI DUP1 PUSH4 0xE1A45218 EQ PUSH2 0x572 JUMPI DUP1 PUSH4 0xF87ECACF EQ PUSH2 0x588 JUMPI DUP1 PUSH4 0xF9847CC0 EQ PUSH2 0x59E JUMPI PUSH1 0x0 DUP1 REVERT JUMPDEST DUP1 PUSH4 0x78C3FA4C EQ PUSH2 0x3B7 JUMPI DUP1 PUSH4 0x7B103999 EQ PUSH2 0x3D7 JUMPI DUP1 PUSH4 0x85C758F7 EQ PUSH2 0x423 JUMPI DUP1 PUSH4 0x8DA5CB5B EQ PUSH2 0x457 JUMPI DUP1 PUSH4 0x96365D44 EQ PUSH2 0x48B JUMPI PUSH1 0x0 DUP1 REVERT JUMPDEST DUP1 PUSH4 0x4EA733E5 GT PUSH2 0xF2 JUMPI DUP1 PUSH4 0x4EA733E5 EQ PUSH2 0x21F JUMPI DUP1 PUSH4 0x5E4B56B4 EQ PUSH2 0x27A JUMPI DUP1 PUSH4 0x5EE0108E EQ PUSH2 0x290 JUMPI DUP1 PUSH4 0x6010BA64 EQ PUSH2 0x2A7 JUMPI DUP1 PUSH4 0x70F37D27 EQ PUSH2 0x3AF JUMPI PUSH1 0x0 DUP1 REVERT JUMPDEST DUP1 PUSH4 0x14018E2F EQ PUSH2 0x16F JUMPI DUP1 PUSH4 0x21D4F8DB EQ PUSH2 0x198 JUMPI DUP1 PUSH4 0x401D4482 EQ PUSH2 0x1C8 JUMPI DUP1 PUSH4 0x402D8883 EQ PUSH2 0x1EA JUMPI DUP1 PUSH4 0x42D46186 EQ PUSH2 0x1F2 JUMPI PUSH1 0x0 DUP1 REVERT JUMPDEST CALLDATASIZE PUSH2 0x16A JUMPI PUSH1 0x40 MLOAD CALLVALUE DUP2 MSTORE CALLER SWAP1 PUSH32 0x32173D8E51CEC3A6FE484B7A1C3FEBE760CDF96E03D4CCA36A43563A4333E838 SWAP1 PUSH1 0x20 ADD PUSH1 0x40 MLOAD DUP1 SWAP2 SUB SWAP1 LOG2 STOP JUMPDEST PUSH1 0x0 DUP1 REVERT JUMPDEST CALLVALUE DUP1 ISZERO PUSH2 0x17B JUMPI PUSH1 0x0 DUP1 REVERT JUMPDEST POP PUSH2 0x185 PUSH1 0x5 SLOAD DUP2 JUMP JUMPDEST PUSH1 0x40 MLOAD SWAP1 DUP2 MSTORE PUSH1 0x20 ADD JUMPDEST PUSH1 0x40 MLOAD DUP1 SWAP2 SUB SWAP1 RETURN JUMPDEST CALLVALUE DUP1 ISZERO PUSH2 0x1A4 JUMPI PUSH1 0x0 DUP1 REVERT JUMPDEST POP PUSH2 0x1B8 PUSH2 0x1B3 CALLDATASIZE PUSH1 0x4 PUSH2 0x1023 JUMP JUMPDEST PUSH2 0x5CB JUMP JUMPDEST PUSH1 0x40 MLOAD SWAP1 ISZERO ISZERO DUP2 MSTORE PUSH1 0x20 ADD PUSH2 0x18F JUMP JUMPDEST CALLVALUE DUP1 ISZERO PUSH2 0x1D4 JUMPI PUSH1 0x0 DUP1 REVERT JUMPDEST POP PUSH2 0x1E8 PUSH2 0x1E3 CALLDATASIZE PUSH1 0x4 PUSH2 0x103E JUMP JUMPDEST PUSH2 0x615 JUMP JUMPDEST STOP JUMPDEST PUSH2 0x1E8 PUSH2 0x6EE JUMP JUMPDEST CALLVALUE DUP1 ISZERO PUSH2 0x1FE JUMPI PUSH1 0x0 DUP1 REVERT JUMPDEST POP PUSH2 0x185 PUSH2 0x20D CALLDATASIZE PUSH1 0x4 PUSH2 0x1023 JUMP JUMPDEST PUSH1 0x3 PUSH1 0x20 MSTORE PUSH1 0x0 SWAP1 DUP2 MSTORE PUSH1 0x40 SWAP1 KECCAK256 SLOAD DUP2 JUMP JUMPDEST CALLVALUE DUP1 ISZERO PUSH2 0x22B JUMPI PUSH1 0x0 DUP1 REVERT JUMPDEST POP PUSH2 0x23F PUSH2 0x23A CALLDATASIZE PUSH1 0x4 PUSH2 0x1023 JUMP JUMPDEST PUSH2 0x8A2 JUMP JUMPDEST PUSH1 0x40 DUP1 MLOAD SWAP9 DUP10 MSTORE PUSH1 0x20 DUP10 ADD SWAP8 SWAP1 SWAP8 MSTORE SWAP6 DUP8 ADD SWAP5 SWAP1 SWAP5 MSTORE SWAP2 ISZERO ISZERO PUSH1 0x60 DUP7 ADD MSTORE PUSH1 0x80 DUP6 ADD MSTORE PUSH1 0xA0 DUP5 ADD MSTORE PUSH1 0xC0 DUP4 ADD MSTORE PUSH1 0xE0 DUP3 ADD MSTORE PUSH2 0x100 ADD PUSH2 0x18F JUMP JUMPDEST CALLVALUE DUP1 ISZERO PUSH2 0x286 JUMPI PUSH1 0x0 DUP1 REVERT JUMPDEST POP PUSH2 0x185 PUSH2 0x1F4 DUP2 JUMP JUMPDEST CALLVALUE DUP1 ISZERO PUSH2 0x29C JUMPI PUSH1 0x0 DUP1 REVERT JUMPDEST POP PUSH2 0x185 PUSH3 0x93A80 DUP2 JUMP JUMPDEST CALLVALUE DUP1 ISZERO PUSH2 0x2B3 JUMPI PUSH1 0x0 DUP1 REVERT JUMPDEST POP PUSH2 0x35F PUSH2 0x2C2 CALLDATASIZE PUSH1 0x4 PUSH2 0x1023 JUMP JUMPDEST PUSH1 0x40 DUP1 MLOAD PUSH1 0xC0 DUP2 ADD DUP3 MSTORE PUSH1 0x0 DUP1 DUP3 MSTORE PUSH1 0x20 DUP3 ADD DUP2 SWAP1 MSTORE SWAP2 DUP2 ADD DUP3 SWAP1 MSTORE PUSH1 0x60 DUP2 ADD DUP3 SWAP1 MSTORE PUSH1 0x80 DUP2 ADD DUP3 SWAP1 MSTORE PUSH1 0xA0 DUP2 ADD SWAP2 SWAP1 SWAP2 MSTORE POP PUSH1 0x1 PUSH1 0x1 PUSH1 0xA0 SHL SUB AND PUSH1 0x0 SWAP1 DUP2 MSTORE PUSH1 0x20 DUP2 DUP2 MSTORE PUSH1 0x40 SWAP2 DUP3 SWAP1 KECCAK256 DUP3 MLOAD PUSH1 0xC0 DUP2 ADD DUP5 MSTORE DUP2 SLOAD DUP2 MSTORE PUSH1 0x1 DUP3 ADD SLOAD SWAP3 DUP2 ADD SWAP3 SWAP1 SWAP3 MSTORE PUSH1 0x2 DUP2 ADD SLOAD SWAP3 DUP3 ADD SWAP3 SWAP1 SWAP3 MSTORE PUSH1 0x3 DUP3 ADD SLOAD PUSH1 0x60 DUP3 ADD MSTORE PUSH1 0x4 SWAP1 SWAP2 ADD SLOAD PUSH1 0xFF DUP1 DUP3 AND ISZERO ISZERO PUSH1 0x80 DUP5 ADD MSTORE PUSH2 0x100 SWAP1 SWAP2 DIV AND ISZERO ISZERO PUSH1 0xA0 DUP3 ADD MSTORE SWAP1 JUMP JUMPDEST PUSH1 0x40 MLOAD PUSH2 0x18F SWAP2 SWAP1 PUSH1 0x0 PUSH1 0xC0 DUP3 ADD SWAP1 POP DUP3 MLOAD DUP3 MSTORE PUSH1 0x20 DUP4 ADD MLOAD PUSH1 0x20 DUP4 ADD MSTORE PUSH1 0x40 DUP4 ADD MLOAD PUSH1 0x40 DUP4 ADD MSTORE PUSH1 0x60 DUP4 ADD MLOAD PUSH1 0x60 DUP4 ADD MSTORE PUSH1 0x80 DUP4 ADD MLOAD ISZERO ISZERO PUSH1 0x80 DUP4 ADD MSTORE PUSH1 0xA0 DUP4 ADD MLOAD ISZERO ISZERO PUSH1 0xA0 DUP4 ADD MSTORE SWAP3 SWAP2 POP POP JUMP JUMPDEST PUSH2 0x1E8 PUSH2 0xA83 JUMP JUMPDEST CALLVALUE DUP1 ISZERO PUSH2 0x3C3 JUMPI PUSH1 0x0 DUP1 REVERT JUMPDEST POP PUSH2 0x1E8 PUSH2 0x3D2 CALLDATASIZE PUSH1 0x4 PUSH2 0x1023 JUMP JUMPDEST PUSH2 0xABA JUMP JUMPDEST CALLVALUE DUP1 ISZERO PUSH2 0x3E3 JUMPI PUSH1 0x0 DUP1 REVERT JUMPDEST POP PUSH2 0x40B PUSH32 0x0 DUP2 JUMP JUMPDEST PUSH1 0x40 MLOAD PUSH1 0x1 PUSH1 0x1 PUSH1 0xA0 SHL SUB SWAP1 SWAP2 AND DUP2 MSTORE PUSH1 0x20 ADD PUSH2 0x18F JUMP JUMPDEST CALLVALUE DUP1 ISZERO PUSH2 0x42F JUMPI PUSH1 0x0 DUP1 REVERT JUMPDEST POP PUSH2 0x40B PUSH32 0x0 DUP2 JUMP JUMPDEST CALLVALUE DUP1 ISZERO PUSH2 0x463 JUMPI PUSH1 0x0 DUP1 REVERT JUMPDEST POP PUSH2 0x40B PUSH32 0x0 DUP2 JUMP JUMPDEST CALLVALUE DUP1 ISZERO PUSH2 0x497 JUMPI PUSH1 0x0 DUP1 REVERT JUMPDEST POP SELFBALANCE PUSH2 0x185 JUMP JUMPDEST CALLVALUE DUP1 ISZERO PUSH2 0x4AA JUMPI PUSH1 0x0 DUP1 REVERT JUMPDEST POP PUSH2 0x4BE PUSH2 0x4B9 CALLDATASIZE PUSH1 0x4 PUSH2 0x1023 JUMP JUMPDEST PUSH2 0xBA1 JUMP JUMPDEST PUSH1 0x40 MLOAD PUSH2 0x18F SWAP2 SWAP1 PUSH2 0x1068 JUMP JUMPDEST CALLVALUE DUP1 ISZERO PUSH2 0x4D7 JUMPI PUSH1 0x0 DUP1 REVERT JUMPDEST POP PUSH2 0x521 PUSH2 0x4E6 CALLDATASIZE PUSH1 0x4 PUSH2 0x1023 JUMP JUMPDEST PUSH1 0x0 PUSH1 0x20 DUP2 SWAP1 MSTORE SWAP1 DUP2 MSTORE PUSH1 0x40 SWAP1 KECCAK256 DUP1 SLOAD PUSH1 0x1 DUP3 ADD SLOAD PUSH1 0x2 DUP4 ADD SLOAD PUSH1 0x3 DUP5 ADD SLOAD PUSH1 0x4 SWAP1 SWAP5 ADD SLOAD SWAP3 SWAP4 SWAP2 SWAP3 SWAP1 SWAP2 SWAP1 PUSH1 0xFF DUP1 DUP3 AND SWAP2 PUSH2 0x100 SWAP1 DIV AND DUP7 JUMP JUMPDEST PUSH1 0x40 DUP1 MLOAD SWAP7 DUP8 MSTORE PUSH1 0x20 DUP8 ADD SWAP6 SWAP1 SWAP6 MSTORE SWAP4 DUP6 ADD SWAP3 SWAP1 SWAP3 MSTORE PUSH1 0x60 DUP5 ADD MSTORE ISZERO ISZERO PUSH1 0x80 DUP4 ADD MSTORE ISZERO ISZERO PUSH1 0xA0 DUP3 ADD MSTORE PUSH1 0xC0 ADD PUSH2 0x18F JUMP JUMPDEST CALLVALUE DUP1 ISZERO PUSH2 0x55E JUMPI PUSH1 0x0 DUP1 REVERT JUMPDEST POP PUSH2 0x1E8 PUSH2 0x56D CALLDATASIZE PUSH1 0x4 PUSH2 0x10E2 JUMP JUMPDEST PUSH2 0xC51 JUMP JUMPDEST CALLVALUE DUP1 ISZERO PUSH2 0x57E JUMPI PUSH1 0x0 DUP1 REVERT JUMPDEST POP PUSH2 0x185 PUSH2 0x2710 DUP2 JUMP JUMPDEST CALLVALUE DUP1 ISZERO PUSH2 0x594 JUMPI PUSH1 0x0 DUP1 REVERT JUMPDEST POP PUSH2 0x185 PUSH1 0x4 SLOAD DUP2 JUMP JUMPDEST CALLVALUE DUP1 ISZERO PUSH2 0x5AA JUMPI PUSH1 0x0 DUP1 REVERT JUMPDEST POP PUSH2 0x185 PUSH2 0x5B9 CALLDATASIZE PUSH1 0x4 PUSH2 0x1023 JUMP JUMPDEST PUSH1 0x2 PUSH1 0x20 MSTORE PUSH1 0x0 SWAP1 DUP2 MSTORE PUSH1 0x40 SWAP1 KECCAK256 SLOAD DUP2 JUMP JUMPDEST PUSH1 0x1 PUSH1 0x1 PUSH1 0xA0 SHL SUB DUP2 AND PUSH1 0x0 SWAP1 DUP2 MSTORE PUSH1 0x20 DUP2 SWAP1 MSTORE PUSH1 0x40 DUP2 KECCAK256 DUP1 SLOAD ISZERO DUP1 ISZERO SWAP1 PUSH2 0x5F8 JUMPI POP PUSH1 0x4 DUP2 ADD SLOAD PUSH1 0xFF AND ISZERO JUMPDEST DUP1 ISZERO PUSH2 0x60E JUMPI POP PUSH1 0x4 DUP2 ADD SLOAD PUSH2 0x100 SWAP1 DIV PUSH1 0xFF AND ISZERO JUMPDEST SWAP4 SWAP3 POP POP POP JUMP JUMPDEST CALLER PUSH1 0x1 PUSH1 0x1 PUSH1 0xA0 SHL SUB PUSH32 0x0 AND EQ PUSH2 0x65E JUMPI PUSH1 0x40 MLOAD PUSH4 0x30CD7471 PUSH1 0xE0 SHL DUP2 MSTORE PUSH1 0x4 ADD PUSH1 0x40 MLOAD DUP1 SWAP2 SUB SWAP1 REVERT JUMPDEST PUSH1 0x0 DUP3 PUSH1 0x1 PUSH1 0x1 PUSH1 0xA0 SHL SUB AND DUP3 PUSH1 0x40 MLOAD PUSH1 0x0 PUSH1 0x40 MLOAD DUP1 DUP4 SUB DUP2 DUP6 DUP8 GAS CALL SWAP3 POP POP POP RETURNDATASIZE DUP1 PUSH1 0x0 DUP2 EQ PUSH2 0x6AB JUMPI PUSH1 0x40 MLOAD SWAP2 POP PUSH1 0x1F NOT PUSH1 0x3F RETURNDATASIZE ADD AND DUP3 ADD PUSH1 0x40 MSTORE RETURNDATASIZE DUP3 MSTORE RETURNDATASIZE PUSH1 0x0 PUSH1 0x20 DUP5 ADD RETURNDATACOPY PUSH2 0x6B0 JUMP JUMPDEST PUSH1 0x60 SWAP2 POP JUMPDEST POP POP SWAP1 POP DUP1 PUSH2 0x6E9 JUMPI PUSH1 0x40 MLOAD PUSH4 0xE21DCBB PUSH1 0xE1 SHL DUP2 MSTORE PUSH1 0x1 PUSH1 0x1 PUSH1 0xA0 SHL SUB DUP5 AND PUSH1 0x4 DUP3 ADD MSTORE PUSH1 0x24 DUP2 ADD DUP4 SWAP1 MSTORE PUSH1 0x44 ADD JUMPDEST PUSH1 0x40 MLOAD DUP1 SWAP2 SUB SWAP1 REVERT JUMPDEST POP POP POP JUMP JUMPDEST CALLER PUSH1 0x0 SWAP1 DUP2 MSTORE PUSH1 0x20 DUP2 SWAP1 MSTORE PUSH1 0x40 SWAP1 KECCAK256 DUP1 SLOAD ISZERO DUP1 PUSH2 0x70F JUMPI POP PUSH1 0x4 DUP2 ADD SLOAD PUSH1 0xFF AND JUMPDEST DUP1 PUSH2 0x723 JUMPI POP PUSH1 0x4 DUP2 ADD SLOAD PUSH2 0x100 SWAP1 DIV PUSH1 0xFF AND JUMPDEST ISZERO PUSH2 0x741 JUMPI PUSH1 0x40 MLOAD PUSH4 0x1C8BC77 PUSH1 0xE2 SHL DUP2 MSTORE PUSH1 0x4 ADD PUSH1 0x40 MLOAD DUP1 SWAP2 SUB SWAP1 REVERT JUMPDEST PUSH1 0x0 PUSH2 0x2710 PUSH2 0x1F4 DUP4 PUSH1 0x0 ADD SLOAD PUSH2 0x758 SWAP2 SWAP1 PUSH2 0x111A JUMP JUMPDEST PUSH2 0x762 SWAP2 SWAP1 PUSH2 0x1137 JUMP JUMPDEST SWAP1 POP PUSH1 0x0 DUP2 DUP4 PUSH1 0x0 ADD SLOAD PUSH2 0x776 SWAP2 SWAP1 PUSH2 0x1159 JUMP JUMPDEST SWAP1 POP DUP1 CALLVALUE LT ISZERO PUSH2 0x7A2 JUMPI PUSH1 0x40 MLOAD PUSH4 0x9C055A77 PUSH1 0xE0 SHL DUP2 MSTORE CALLVALUE PUSH1 0x4 DUP3 ADD MSTORE PUSH1 0x24 DUP2 ADD DUP3 SWAP1 MSTORE PUSH1 0x44 ADD PUSH2 0x6E0 JUMP JUMPDEST DUP3 SLOAD PUSH1 0x4 DUP5 ADD DUP1 SLOAD PUSH1 0xFF NOT AND PUSH1 0x1 OR SWAP1 SSTORE CALLER PUSH1 0x0 DUP2 DUP2 MSTORE PUSH1 0x2 PUSH1 0x20 MSTORE PUSH1 0x40 SWAP1 DUP2 SWAP1 KECCAK256 DUP1 SLOAD DUP5 ADD SWAP1 SSTORE PUSH1 0x5 DUP1 SLOAD DUP5 ADD SWAP1 SSTORE MLOAD PUSH32 0xC7CE0A35F17B490DE2A317E7FECB2CAE86B1ABFFB03800B2F492823521382698 SWAP1 PUSH2 0x80B SWAP1 DUP5 SWAP1 DUP8 SWAP1 SWAP2 DUP3 MSTORE PUSH1 0x20 DUP3 ADD MSTORE PUSH1 0x40 ADD SWAP1 JUMP JUMPDEST PUSH1 0x40 MLOAD DUP1 SWAP2 SUB SWAP1 LOG2 PUSH1 0x0 PUSH2 0x81F DUP4 CALLVALUE PUSH2 0x116C JUMP JUMPDEST SWAP1 POP DUP1 ISZERO PUSH2 0x89B JUMPI PUSH1 0x40 MLOAD PUSH1 0x0 SWAP1 CALLER SWAP1 DUP4 SWAP1 DUP4 DUP2 DUP2 DUP2 DUP6 DUP8 GAS CALL SWAP3 POP POP POP RETURNDATASIZE DUP1 PUSH1 0x0 DUP2 EQ PUSH2 0x869 JUMPI PUSH1 0x40 MLOAD SWAP2 POP PUSH1 0x1F NOT PUSH1 0x3F RETURNDATASIZE ADD AND DUP3 ADD PUSH1 0x40 MSTORE RETURNDATASIZE DUP3 MSTORE RETURNDATASIZE PUSH1 0x0 PUSH1 0x20 DUP5 ADD RETURNDATACOPY PUSH2 0x86E JUMP JUMPDEST PUSH1 0x60 SWAP2 POP JUMPDEST POP POP SWAP1 POP DUP1 PUSH2 0x899 JUMPI PUSH1 0x40 MLOAD PUSH4 0xE21DCBB PUSH1 0xE1 SHL DUP2 MSTORE CALLER PUSH1 0x4 DUP3 ADD MSTORE PUSH1 0x24 DUP2 ADD DUP4 SWAP1 MSTORE PUSH1 0x44 ADD PUSH2 0x6E0 JUMP JUMPDEST POP JUMPDEST POP POP POP POP POP JUMP JUMPDEST PUSH1 0x0 DUP1 PUSH1 0x0 DUP1 PUSH1 0x0 DUP1 PUSH1 0x0 DUP1 PUSH32 0x0 PUSH1 0x1 PUSH1 0x1 PUSH1 0xA0 SHL SUB AND PUSH4 0x23E957B6 DUP11 PUSH1 0x40 MLOAD DUP3 PUSH4 0xFFFFFFFF AND PUSH1 0xE0 SHL DUP2 MSTORE PUSH1 0x4 ADD PUSH2 0x909 SWAP2 SWAP1 PUSH1 0x1 PUSH1 0x1 PUSH1 0xA0 SHL SUB SWAP2 SWAP1 SWAP2 AND DUP2 MSTORE PUSH1 0x20 ADD SWAP1 JUMP JUMPDEST PUSH1 0x40 DUP1 MLOAD DUP1 DUP4 SUB DUP2 DUP7 GAS STATICCALL ISZERO DUP1 ISZERO PUSH2 0x925 JUMPI RETURNDATASIZE PUSH1 0x0 DUP1 RETURNDATACOPY RETURNDATASIZE PUSH1 0x0 REVERT JUMPDEST POP POP POP POP PUSH1 0x40 MLOAD RETURNDATASIZE PUSH1 0x1F NOT PUSH1 0x1F DUP3 ADD AND DUP3 ADD DUP1 PUSH1 0x40 MSTORE POP DUP2 ADD SWAP1 PUSH2 0x949 SWAP2 SWAP1 PUSH2 0x117F JUMP JUMPDEST PUSH1 0x40 MLOAD PUSH4 0x5BE7E57F PUSH1 0xE0 SHL DUP2 MSTORE PUSH1 0x1 PUSH1 0x1 PUSH1 0xA0 SHL SUB DUP13 DUP2 AND PUSH1 0x4 DUP4 ADD MSTORE SWAP3 SWAP11 POP SWAP1 SWAP9 POP PUSH32 0x0 SWAP1 SWAP2 AND SWAP1 PUSH4 0x5BE7E57F SWAP1 PUSH1 0x24 ADD PUSH1 0x20 PUSH1 0x40 MLOAD DUP1 DUP4 SUB DUP2 DUP7 GAS STATICCALL ISZERO DUP1 ISZERO PUSH2 0x9B7 JUMPI RETURNDATASIZE PUSH1 0x0 DUP1 RETURNDATACOPY RETURNDATASIZE PUSH1 0x0 REVERT JUMPDEST POP POP POP POP PUSH1 0x40 MLOAD RETURNDATASIZE PUSH1 0x1F NOT PUSH1 0x1F DUP3 ADD AND DUP3 ADD DUP1 PUSH1 0x40 MSTORE POP DUP2 ADD SWAP1 PUSH2 0x9DB SWAP2 SWAP1 PUSH2 0x11A3 JUMP JUMPDEST PUSH1 0x1 PUSH1 0x1 PUSH1 0xA0 SHL SUB DUP11 AND PUSH1 0x0 SWAP1 DUP2 MSTORE PUSH1 0x20 DUP2 SWAP1 MSTORE PUSH1 0x40 SWAP1 KECCAK256 DUP1 SLOAD SWAP2 SWAP8 POP SWAP1 ISZERO DUP1 ISZERO SWAP1 PUSH2 0xA0C JUMPI POP PUSH1 0x4 DUP2 ADD SLOAD PUSH1 0xFF AND ISZERO JUMPDEST DUP1 ISZERO PUSH2 0xA22 JUMPI POP PUSH1 0x4 DUP2 ADD SLOAD PUSH2 0x100 SWAP1 DIV PUSH1 0xFF AND ISZERO JUMPDEST SWAP6 POP DUP6 PUSH2 0xA30 JUMPI PUSH1 0x0 PUSH2 0xA33 JUMP JUMPDEST DUP1 SLOAD JUMPDEST SWAP5 POP DUP6 PUSH2 0xA41 JUMPI PUSH1 0x0 PUSH2 0xA47 JUMP JUMPDEST DUP1 PUSH1 0x2 ADD SLOAD JUMPDEST PUSH1 0x1 PUSH1 0x1 PUSH1 0xA0 SHL SUB SWAP1 SWAP11 AND PUSH1 0x0 SWAP1 DUP2 MSTORE PUSH1 0x3 PUSH1 0x20 SWAP1 DUP2 MSTORE PUSH1 0x40 DUP1 DUP4 KECCAK256 SLOAD PUSH1 0x2 SWAP1 SWAP3 MSTORE SWAP1 SWAP2 KECCAK256 SLOAD SWAP10 SWAP12 SWAP9 SWAP11 SWAP8 SWAP10 SWAP7 SWAP9 SWAP6 SWAP8 SWAP7 SWAP1 SWAP6 SWAP1 SWAP5 POP SWAP3 POP POP POP JUMP JUMPDEST PUSH1 0x40 MLOAD CALLVALUE DUP2 MSTORE CALLER SWAP1 PUSH32 0x32173D8E51CEC3A6FE484B7A1C3FEBE760CDF96E03D4CCA36A43563A4333E838 SWAP1 PUSH1 0x20 ADD PUSH1 0x40 MLOAD DUP1 SWAP2 SUB SWAP1 LOG2 JUMP JUMPDEST PUSH1 0x1 PUSH1 0x1 PUSH1 0xA0 SHL SUB DUP2 AND PUSH1 0x0 SWAP1 DUP2 MSTORE PUSH1 0x20 DUP2 SWAP1 MSTORE PUSH1 0x40 DUP2 KECCAK256 DUP1 SLOAD SWAP1 SWAP2 SWAP1 ISZERO DUP1 ISZERO SWAP1 PUSH2 0xAEA JUMPI POP PUSH1 0x4 DUP3 ADD SLOAD PUSH1 0xFF AND ISZERO JUMPDEST DUP1 ISZERO PUSH2 0xB00 JUMPI POP PUSH1 0x4 DUP3 ADD SLOAD PUSH2 0x100 SWAP1 DIV PUSH1 0xFF AND ISZERO JUMPDEST DUP1 ISZERO PUSH2 0xB0F JUMPI POP DUP2 PUSH1 0x2 ADD SLOAD TIMESTAMP GT JUMPDEST SWAP1 POP DUP1 PUSH2 0xB2F JUMPI PUSH1 0x40 MLOAD PUSH4 0x1DFA5479 PUSH1 0xE2 SHL DUP2 MSTORE PUSH1 0x4 ADD PUSH1 0x40 MLOAD DUP1 SWAP2 SUB SWAP1 REVERT JUMPDEST PUSH1 0x4 DUP3 ADD DUP1 SLOAD PUSH2 0xFF00 NOT AND PUSH2 0x100 OR SWAP1 SSTORE PUSH1 0x1 PUSH1 0x1 PUSH1 0xA0 SHL SUB DUP4 AND PUSH1 0x0 DUP2 DUP2 MSTORE PUSH1 0x3 PUSH1 0x20 MSTORE PUSH1 0x40 SWAP1 DUP2 SWAP1 KECCAK256 DUP1 SLOAD PUSH1 0x1 ADD SWAP1 SSTORE DUP4 SLOAD SWAP1 MLOAD PUSH32 0xBE253503C49F8FB02046DA3EF57BC2F5F881EB14BA5C2C26B54BF2FB4E7DB07 SWAP2 PUSH2 0xB94 SWAP2 SWAP1 DUP2 MSTORE PUSH1 0x20 ADD SWAP1 JUMP JUMPDEST PUSH1 0x40 MLOAD DUP1 SWAP2 SUB SWAP1 LOG2 POP POP POP JUMP JUMPDEST PUSH1 0x1 PUSH1 0x1 PUSH1 0xA0 SHL SUB DUP2 AND PUSH1 0x0 SWAP1 DUP2 MSTORE PUSH1 0x1 PUSH1 0x20 SWAP1 DUP2 MSTORE PUSH1 0x40 DUP1 DUP4 KECCAK256 DUP1 SLOAD DUP3 MLOAD DUP2 DUP6 MUL DUP2 ADD DUP6 ADD SWAP1 SWAP4 MSTORE DUP1 DUP4 MSTORE PUSH1 0x60 SWAP5 SWAP3 SWAP4 SWAP2 SWAP3 SWAP1 SWAP2 DUP5 ADD JUMPDEST DUP3 DUP3 LT ISZERO PUSH2 0xC46 JUMPI PUSH1 0x0 DUP5 DUP2 MSTORE PUSH1 0x20 SWAP1 DUP2 SWAP1 KECCAK256 PUSH1 0x40 DUP1 MLOAD PUSH1 0xC0 DUP2 ADD DUP3 MSTORE PUSH1 0x6 DUP7 MUL SWAP1 SWAP3 ADD DUP1 SLOAD DUP4 MSTORE PUSH1 0x1 DUP1 DUP3 ADD SLOAD DUP5 DUP7 ADD MSTORE PUSH1 0x2 DUP3 ADD SLOAD SWAP3 DUP5 ADD SWAP3 SWAP1 SWAP3 MSTORE PUSH1 0x3 DUP2 ADD SLOAD PUSH1 0xFF AND ISZERO ISZERO PUSH1 0x60 DUP5 ADD MSTORE PUSH1 0x4 DUP2 ADD SLOAD PUSH1 0x80 DUP5 ADD MSTORE PUSH1 0x5 ADD SLOAD PUSH1 0xA0 DUP4 ADD MSTORE SWAP1 DUP4 MSTORE SWAP1 SWAP3 ADD SWAP2 ADD PUSH2 0xBD9 JUMP JUMPDEST POP POP POP POP SWAP1 POP SWAP2 SWAP1 POP JUMP JUMPDEST CALLER PUSH1 0x0 SWAP1 DUP2 MSTORE PUSH1 0x20 DUP2 SWAP1 MSTORE PUSH1 0x40 SWAP1 KECCAK256 DUP1 SLOAD ISZERO DUP1 ISZERO SWAP1 PUSH2 0xC75 JUMPI POP PUSH1 0x4 DUP2 ADD SLOAD PUSH1 0xFF AND ISZERO JUMPDEST DUP1 ISZERO PUSH2 0xC8B JUMPI POP PUSH1 0x4 DUP2 ADD SLOAD PUSH2 0x100 SWAP1 DIV PUSH1 0xFF AND ISZERO JUMPDEST ISZERO PUSH2 0xCA9 JUMPI PUSH1 0x40 MLOAD PUSH4 0x2179F9DB PUSH1 0xE2 SHL DUP2 MSTORE PUSH1 0x4 ADD PUSH1 0x40 MLOAD DUP1 SWAP2 SUB SWAP1 REVERT JUMPDEST PUSH1 0x40 MLOAD PUSH4 0x11F4ABDB PUSH1 0xE1 SHL DUP2 MSTORE CALLER PUSH1 0x4 DUP3 ADD MSTORE PUSH1 0x0 SWAP1 DUP2 SWAP1 PUSH1 0x1 PUSH1 0x1 PUSH1 0xA0 SHL SUB PUSH32 0x0 AND SWAP1 PUSH4 0x23E957B6 SWAP1 PUSH1 0x24 ADD PUSH1 0x40 DUP1 MLOAD DUP1 DUP4 SUB DUP2 DUP7 GAS STATICCALL ISZERO DUP1 ISZERO PUSH2 0xD11 JUMPI RETURNDATASIZE PUSH1 0x0 DUP1 RETURNDATACOPY RETURNDATASIZE PUSH1 0x0 REVERT JUMPDEST POP POP POP POP PUSH1 0x40 MLOAD RETURNDATASIZE PUSH1 0x1F NOT PUSH1 0x1F DUP3 ADD AND DUP3 ADD DUP1 PUSH1 0x40 MSTORE POP DUP2 ADD SWAP1 PUSH2 0xD35 SWAP2 SWAP1 PUSH2 0x117F JUMP JUMPDEST SWAP2 POP SWAP2 POP DUP1 DUP6 GT ISZERO PUSH2 0xD6B JUMPI PUSH1 0x40 MLOAD PUSH4 0x1FF5A4BF PUSH1 0xE2 SHL DUP2 MSTORE PUSH1 0x4 DUP2 ADD DUP4 SWAP1 MSTORE PUSH1 0x24 DUP2 ADD DUP3 SWAP1 MSTORE PUSH1 0x44 DUP2 ADD DUP7 SWAP1 MSTORE PUSH1 0x64 ADD PUSH2 0x6E0 JUMP JUMPDEST SELFBALANCE DUP6 GT ISZERO PUSH2 0xD95 JUMPI PUSH1 0x40 MLOAD PUSH4 0xCE9514F9 PUSH1 0xE0 SHL DUP2 MSTORE PUSH1 0x4 DUP2 ADD DUP7 SWAP1 MSTORE SELFBALANCE PUSH1 0x24 DUP3 ADD MSTORE PUSH1 0x44 ADD PUSH2 0x6E0 JUMP JUMPDEST CALLER PUSH1 0x0 SWAP1 DUP2 MSTORE PUSH1 0x1 PUSH1 0x20 DUP2 DUP2 MSTORE PUSH1 0x40 DUP1 DUP5 KECCAK256 DUP2 MLOAD PUSH1 0xC0 DUP2 ADD DUP4 MSTORE DUP8 DUP2 MSTORE DUP1 DUP5 ADD DUP8 DUP2 MSTORE SWAP3 DUP2 ADD DUP12 DUP2 MSTORE PUSH1 0x60 DUP3 ADD DUP7 DUP2 MSTORE TIMESTAMP PUSH1 0x80 DUP5 ADD DUP2 DUP2 MSTORE PUSH1 0xA0 DUP6 ADD DUP15 DUP2 MSTORE DUP7 SLOAD DUP1 DUP12 ADD DUP9 SSTORE SWAP7 DUP12 MSTORE SWAP8 DUP11 KECCAK256 SWAP5 MLOAD PUSH1 0x6 SWAP1 SWAP7 MUL SWAP1 SWAP5 ADD SWAP5 DUP6 SSTORE SWAP5 MLOAD SWAP7 DUP5 ADD SWAP7 SWAP1 SWAP7 SSTORE MLOAD PUSH1 0x2 DUP4 ADD SSTORE SWAP4 MLOAD PUSH1 0x3 DUP3 ADD DUP1 SLOAD PUSH1 0xFF NOT AND SWAP2 ISZERO ISZERO SWAP2 SWAP1 SWAP2 OR SWAP1 SSTORE SWAP3 MLOAD PUSH1 0x4 DUP5 ADD SSTORE SWAP1 MLOAD PUSH1 0x5 SWAP1 SWAP3 ADD SWAP2 SWAP1 SWAP2 SSTORE PUSH2 0xE32 SWAP1 PUSH3 0x93A80 SWAP1 PUSH2 0x1159 JUMP JUMPDEST PUSH1 0x40 DUP1 MLOAD PUSH1 0xC0 DUP2 ADD DUP3 MSTORE DUP9 DUP2 MSTORE TIMESTAMP PUSH1 0x20 DUP1 DUP4 ADD DUP3 DUP2 MSTORE DUP4 DUP6 ADD DUP7 DUP2 MSTORE PUSH1 0x60 DUP6 ADD DUP13 DUP2 MSTORE PUSH1 0x0 PUSH1 0x80 DUP8 ADD DUP2 DUP2 MSTORE PUSH1 0xA0 DUP9 ADD DUP3 DUP2 MSTORE CALLER DUP1 DUP5 MSTORE SWAP7 DUP4 SWAP1 MSTORE SWAP2 DUP10 SWAP1 KECCAK256 SWAP8 MLOAD DUP9 SSTORE SWAP4 MLOAD PUSH1 0x1 DUP9 DUP2 ADD SWAP2 SWAP1 SWAP2 SSTORE SWAP3 MLOAD PUSH1 0x2 DUP9 ADD SSTORE SWAP1 MLOAD PUSH1 0x3 DUP8 ADD SSTORE SWAP2 MLOAD PUSH1 0x4 SWAP6 DUP7 ADD DUP1 SLOAD SWAP4 MLOAD ISZERO ISZERO PUSH2 0x100 MUL PUSH2 0xFF00 NOT SWAP3 ISZERO ISZERO SWAP3 SWAP1 SWAP3 AND PUSH2 0xFFFF NOT SWAP1 SWAP5 AND SWAP4 SWAP1 SWAP4 OR OR SWAP1 SWAP2 SSTORE DUP4 SLOAD DUP13 ADD SWAP1 SWAP4 SSTORE SWAP3 MLOAD SWAP4 SWAP5 POP SWAP2 SWAP3 PUSH32 0xB836DD526ACF8A4722EDE71525EE21A5D3CA53539BD91C83D8DA9419DC677B81 SWAP3 PUSH2 0xF0E SWAP3 DUP12 SWAP3 SWAP1 SWAP2 DUP10 SWAP2 SWAP4 DUP5 MSTORE SWAP2 ISZERO ISZERO PUSH1 0x20 DUP5 ADD MSTORE PUSH1 0x40 DUP4 ADD MSTORE PUSH1 0x60 DUP3 ADD MSTORE PUSH1 0x80 ADD SWAP1 JUMP JUMPDEST PUSH1 0x40 MLOAD DUP1 SWAP2 SUB SWAP1 LOG2 PUSH1 0x40 DUP1 MLOAD DUP7 DUP2 MSTORE PUSH1 0x1 PUSH1 0x20 DUP3 ADD MSTORE CALLER SWAP2 PUSH32 0x168E54CA312CAE993242FA00582B750DE023BF8B7ED1CA9E14AEB81EE0FB9E70 SWAP2 ADD PUSH1 0x40 MLOAD DUP1 SWAP2 SUB SWAP1 LOG2 PUSH1 0x40 DUP1 MLOAD DUP8 DUP2 MSTORE PUSH1 0x20 DUP2 ADD DUP4 SWAP1 MSTORE CALLER SWAP2 PUSH32 0x5660F932172E1664B98577A703DD9484D374B28E3BF8C87B345BEE97AF612412 SWAP2 ADD PUSH1 0x40 MLOAD DUP1 SWAP2 SUB SWAP1 LOG2 PUSH1 0x40 MLOAD PUSH1 0x0 SWAP1 CALLER SWAP1 DUP9 SWAP1 DUP4 DUP2 DUP2 DUP2 DUP6 DUP8 GAS CALL SWAP3 POP POP POP RETURNDATASIZE DUP1 PUSH1 0x0 DUP2 EQ PUSH2 0xFCE JUMPI PUSH1 0x40 MLOAD SWAP2 POP PUSH1 0x1F NOT PUSH1 0x3F RETURNDATASIZE ADD AND DUP3 ADD PUSH1 0x40 MSTORE RETURNDATASIZE DUP3 MSTORE RETURNDATASIZE PUSH1 0x0 PUSH1 0x20 DUP5 ADD RETURNDATACOPY PUSH2 0xFD3 JUMP JUMPDEST PUSH1 0x60 SWAP2 POP JUMPDEST POP POP SWAP1 POP DUP1 PUSH2 0xFFE JUMPI PUSH1 0x40 MLOAD PUSH4 0xE21DCBB PUSH1 0xE1 SHL DUP2 MSTORE CALLER PUSH1 0x4 DUP3 ADD MSTORE PUSH1 0x24 DUP2 ADD DUP9 SWAP1 MSTORE PUSH1 0x44 ADD PUSH2 0x6E0 JUMP JUMPDEST POP POP POP POP POP POP POP JUMP JUMPDEST DUP1 CALLDATALOAD PUSH1 0x1 PUSH1 0x1 PUSH1 0xA0 SHL SUB DUP2 AND DUP2 EQ PUSH2 0x101E JUMPI PUSH1 0x0 DUP1 REVERT JUMPDEST SWAP2 SWAP1 POP JUMP JUMPDEST PUSH1 0x0 PUSH1 0x20 DUP3 DUP5 SUB SLT ISZERO PUSH2 0x1035 JUMPI PUSH1 0x0 DUP1 REVERT JUMPDEST PUSH2 0x60E DUP3 PUSH2 0x1007 JUMP JUMPDEST PUSH1 0x0 DUP1 PUSH1 0x40 DUP4 DUP6 SUB SLT ISZERO PUSH2 0x1051 JUMPI PUSH1 0x0 DUP1 REVERT JUMPDEST PUSH2 0x105A DUP4 PUSH2 0x1007 JUMP JUMPDEST SWAP5 PUSH1 0x20 SWAP4 SWAP1 SWAP4 ADD CALLDATALOAD SWAP4 POP POP POP JUMP JUMPDEST PUSH1 0x20 DUP1 DUP3 MSTORE DUP3 MLOAD DUP3 DUP3 ADD DUP2 SWAP1 MSTORE PUSH1 0x0 SWAP2 SWAP1 PUSH1 0x40 SWAP1 DUP2 DUP6 ADD SWAP1 DUP7 DUP5 ADD DUP6 JUMPDEST DUP3 DUP2 LT ISZERO PUSH2 0x10D5 JUMPI DUP2 MLOAD DUP1 MLOAD DUP6 MSTORE DUP7 DUP2 ADD MLOAD DUP8 DUP7 ADD MSTORE DUP6 DUP2 ADD MLOAD DUP7 DUP7 ADD MSTORE PUSH1 0x60 DUP1 DUP3 ADD MLOAD ISZERO ISZERO SWAP1 DUP7 ADD MSTORE PUSH1 0x80 DUP1 DUP3 ADD MLOAD SWAP1 DUP7 ADD MSTORE PUSH1 0xA0 SWAP1 DUP2 ADD MLOAD SWAP1 DUP6 ADD MSTORE PUSH1 0xC0 SWAP1 SWAP4 ADD SWAP3 SWAP1 DUP6 ADD SWAP1 PUSH1 0x1 ADD PUSH2 0x1085 JUMP JUMPDEST POP SWAP2 SWAP8 SWAP7 POP POP POP POP POP POP POP JUMP JUMPDEST PUSH1 0x0 DUP1 PUSH1 0x40 DUP4 DUP6 SUB SLT ISZERO PUSH2 0x10F5 JUMPI PUSH1 0x0 DUP1 REVERT JUMPDEST POP POP DUP1 CALLDATALOAD SWAP3 PUSH1 0x20 SWAP1 SWAP2 ADD CALLDATALOAD SWAP2 POP JUMP JUMPDEST PUSH4 0x4E487B71 PUSH1 0xE0 SHL PUSH1 0x0 MSTORE PUSH1 0x11 PUSH1 0x4 MSTORE PUSH1 0x24 PUSH1 0x0 REVERT JUMPDEST DUP1 DUP3 MUL DUP2 ISZERO DUP3 DUP3 DIV DUP5 EQ OR PUSH2 0x1131 JUMPI PUSH2 0x1131 PUSH2 0x1104 JUMP JUMPDEST SWAP3 SWAP2 POP POP JUMP JUMPDEST PUSH1 0x0 DUP3 PUSH2 0x1154 JUMPI PUSH4 0x4E487B71 PUSH1 0xE0 SHL PUSH1 0x0 MSTORE PUSH1 0x12 PUSH1 0x4 MSTORE PUSH1 0x24 PUSH1 0x0 REVERT JUMPDEST POP DIV SWAP1 JUMP JUMPDEST DUP1 DUP3 ADD DUP1 DUP3 GT ISZERO PUSH2 0x1131 JUMPI PUSH2 0x1131 PUSH2 0x1104 JUMP JUMPDEST DUP2 DUP2 SUB DUP2 DUP2 GT ISZERO PUSH2 0x1131 JUMPI PUSH2 0x1131 PUSH2 0x1104 JUMP JUMPDEST PUSH1 0x0 DUP1 PUSH1 0x40 DUP4 DUP6 SUB SLT ISZERO PUSH2 0x1192 JUMPI PUSH1 0x0 DUP1 REVERT JUMPDEST POP POP DUP1 MLOAD PUSH1 0x20 SWAP1 SWAP2 ADD MLOAD SWAP1 SWAP3 SWAP1 SWAP2 POP JUMP JUMPDEST PUSH1 0x0 PUSH1 0x20 DUP3 DUP5 SUB SLT ISZERO PUSH2 0x11B5 JUMPI PUSH1 0x0 DUP1 REVERT JUMPDEST POP MLOAD SWAP2 SWAP1 POP JUMP INVALID LOG2 PUSH5 0x6970667358 0x22 SLT KECCAK256 0x4F 0xBA 0xA8 0xB0 BASEFEE MSIZE 0xCF 0xC5 SWAP16 0x4B MOD SLOAD 0xDB PUSH19 0x268B15C0BACE4B66777C7FB228600886580964 PUSH20 0x6F6C634300081300330000000000000000000000 "},"methodIdentifiers":{"BPS_DENOMINATOR()":"e1a45218","REPAYMENT_FEE_BPS()":"5e4b56b4","REPAYMENT_WINDOW()":"5ee0108e","activeLoans(address)":"ba649839","adminWithdraw(address,uint256)":"401d4482","defaultCount(address)":"42d46186","fundPool()":"70f37d27","getActiveLoan(address)":"6010ba64","getCreditStatus(address)":"4ea733e5","getDecisions(address)":"a131a2fa","hasActiveLoan(address)":"21d4f8db","owner()":"8da5cb5b","poolBalance()":"96365d44","processDefault(address)":"78c3fa4c","registry()":"7b103999","repay()":"402d8883","requestCredit(uint256,bytes32)":"bbd48e1c","scorer()":"85c758f7","totalDisbursedWei()":"f87ecacf","totalRepaidToPoolWei()":"14018e2f","totalRepaidWei(address)":"f9847cc0"}}}}}