{
  "_format": "hh-sol-artifact-1",
  "contractName": "WorkRegistry",
  "sourceName": "src/WorkRegistry.sol",
  "abi": [
    {
      "inputs": [
        {
          "internalType": "bytes32",
          "name": "chatIDHash",
          "type": "bytes32"
        }
      ],
      "name": "DuplicateChatID",
      "type": "error"
    },
    {
      "inputs": [],
      "name": "InvalidProvider",
      "type": "error"
    },
    {
      "inputs": [],
      "name": "ZeroComputeCost",
      "type": "error"
    },
    {
      "anonymous": false,
      "inputs": [
        {
          "indexed": true,
          "internalType": "address",
          "name": "agent",
          "type": "address"
        },
        {
          "indexed": true,
          "internalType": "address",
          "name": "provider",
          "type": "address"
        },
        {
          "indexed": true,
          "internalType": "bytes32",
          "name": "chatIDHash",
          "type": "bytes32"
        },
        {
          "indexed": false,
          "internalType": "uint256",
          "name": "computeCostWei",
          "type": "uint256"
        },
        {
          "indexed": false,
          "internalType": "bool",
          "name": "teeVerified",
          "type": "bool"
        },
        {
          "indexed": false,
          "internalType": "bool",
          "name": "countsTowardScore",
          "type": "bool"
        },
        {
          "indexed": false,
          "internalType": "uint256",
          "name": "timestamp",
          "type": "uint256"
        }
      ],
      "name": "WorkSubmitted",
      "type": "event"
    },
    {
      "inputs": [],
      "name": "MIN_COMPUTE_COST_WEI",
      "outputs": [
        {
          "internalType": "uint256",
          "name": "",
          "type": "uint256"
        }
      ],
      "stateMutability": "view",
      "type": "function"
    },
    {
      "inputs": [
        {
          "internalType": "address",
          "name": "agent",
          "type": "address"
        }
      ],
      "name": "getAllWorkRecords",
      "outputs": [
        {
          "components": [
            {
              "internalType": "address",
              "name": "agent",
              "type": "address"
            },
            {
              "internalType": "address",
              "name": "provider",
              "type": "address"
            },
            {
              "internalType": "bytes32",
              "name": "chatIDHash",
              "type": "bytes32"
            },
            {
              "internalType": "bytes32",
              "name": "responseHash",
              "type": "bytes32"
            },
            {
              "internalType": "uint256",
              "name": "computeCostWei",
              "type": "uint256"
            },
            {
              "internalType": "uint256",
              "name": "timestamp",
              "type": "uint256"
            },
            {
              "internalType": "bool",
              "name": "teeVerified",
              "type": "bool"
            }
          ],
          "internalType": "struct WorkRegistry.WorkRecord[]",
          "name": "",
          "type": "tuple[]"
        }
      ],
      "stateMutability": "view",
      "type": "function"
    },
    {
      "inputs": [
        {
          "internalType": "address",
          "name": "agent",
          "type": "address"
        }
      ],
      "name": "getJobCount",
      "outputs": [
        {
          "internalType": "uint256",
          "name": "",
          "type": "uint256"
        }
      ],
      "stateMutability": "view",
      "type": "function"
    },
    {
      "inputs": [
        {
          "internalType": "address",
          "name": "agent",
          "type": "address"
        }
      ],
      "name": "getScoringInputs",
      "outputs": [
        {
          "internalType": "uint256",
          "name": "verifiedJobs",
          "type": "uint256"
        },
        {
          "internalType": "uint256",
          "name": "totalSpendWei",
          "type": "uint256"
        }
      ],
      "stateMutability": "view",
      "type": "function"
    },
    {
      "inputs": [
        {
          "internalType": "address",
          "name": "agent",
          "type": "address"
        }
      ],
      "name": "getVerifiedComputeSpend",
      "outputs": [
        {
          "internalType": "uint256",
          "name": "total",
          "type": "uint256"
        }
      ],
      "stateMutability": "view",
      "type": "function"
    },
    {
      "inputs": [
        {
          "internalType": "address",
          "name": "agent",
          "type": "address"
        }
      ],
      "name": "getVerifiedJobCount",
      "outputs": [
        {
          "internalType": "uint256",
          "name": "count",
          "type": "uint256"
        }
      ],
      "stateMutability": "view",
      "type": "function"
    },
    {
      "inputs": [
        {
          "internalType": "address",
          "name": "agent",
          "type": "address"
        },
        {
          "internalType": "uint256",
          "name": "index",
          "type": "uint256"
        }
      ],
      "name": "getWorkRecord",
      "outputs": [
        {
          "components": [
            {
              "internalType": "address",
              "name": "agent",
              "type": "address"
            },
            {
              "internalType": "address",
              "name": "provider",
              "type": "address"
            },
            {
              "internalType": "bytes32",
              "name": "chatIDHash",
              "type": "bytes32"
            },
            {
              "internalType": "bytes32",
              "name": "responseHash",
              "type": "bytes32"
            },
            {
              "internalType": "uint256",
              "name": "computeCostWei",
              "type": "uint256"
            },
            {
              "internalType": "uint256",
              "name": "timestamp",
              "type": "uint256"
            },
            {
              "internalType": "bool",
              "name": "teeVerified",
              "type": "bool"
            }
          ],
          "internalType": "struct WorkRegistry.WorkRecord",
          "name": "",
          "type": "tuple"
        }
      ],
      "stateMutability": "view",
      "type": "function"
    },
    {
      "inputs": [
        {
          "internalType": "address",
          "name": "agent",
          "type": "address"
        },
        {
          "internalType": "bytes32",
          "name": "chatIDHash",
          "type": "bytes32"
        }
      ],
      "name": "isSubmitted",
      "outputs": [
        {
          "internalType": "bool",
          "name": "",
          "type": "bool"
        }
      ],
      "stateMutability": "view",
      "type": "function"
    },
    {
      "inputs": [
        {
          "internalType": "address",
          "name": "provider",
          "type": "address"
        },
        {
          "internalType": "bytes32",
          "name": "chatIDHash",
          "type": "bytes32"
        },
        {
          "internalType": "bytes32",
          "name": "responseHash",
          "type": "bytes32"
        },
        {
          "internalType": "uint256",
          "name": "computeCostWei",
          "type": "uint256"
        },
        {
          "internalType": "bool",
          "name": "teeVerified",
          "type": "bool"
        }
      ],
      "name": "submitWork",
      "outputs": [],
      "stateMutability": "nonpayable",
      "type": "function"
    }
  ],
  "bytecode": "0x608060405234801561001057600080fd5b506109b4806100206000396000f3fe608060405234801561001057600080fd5b50600436106100935760003560e01c80635be7e57f116100665780635be7e57f14610103578063672bc43a146101165780636830cdc414610136578063a31f76271461015f578063ff7d86cd1461017f57600080fd5b806309a6049d14610098578063145c61b4146100c057806321a8eecd146100e1578063524a989c146100ee575b600080fd5b6100ab6100a6366004610815565b6101a7565b60405190151581526020015b60405180910390f35b6100d36100ce36600461083f565b6101d5565b6040519081526020016100b7565b6100d3655af3107a400081565b6101016100fc366004610861565b610293565b005b6100d361011136600461083f565b610502565b61012961012436600461083f565b610597565b6040516100b7919061090c565b6100d361014436600461083f565b6001600160a01b031660009081526020819052604090205490565b61017261016d366004610815565b61065d565b6040516100b7919061095a565b61019261018d36600461083f565b610733565b604080519283526020830191909152016100b7565b6001600160a01b038216600090815260016020908152604080832084845290915290205460ff165b92915050565b6001600160a01b0381166000908152602081905260408120815b815481101561028c5781818154811061020a5761020a610968565b600091825260209091206006600790920201015460ff1680156102565750655af3107a400082828154811061024157610241610968565b90600052602060002090600702016004015410155b156102845781818154811061026d5761026d610968565b906000526020600020906007020160040154830192505b6001016101ef565b5050919050565b6001600160a01b0385166102ba57604051633b136dc160e11b815260040160405180910390fd5b816000036102db5760405163062bb74d60e01b815260040160405180910390fd5b33600090815260016020908152604080832087845290915290205460ff161561031e5760405163bd4f040d60e01b81526004810185905260240160405180910390fd5b3360009081526001602081815260408084208885529091528220805460ff191690911790558180156103565750655af3107a40008310155b9050600080336001600160a01b03166001600160a01b031681526020019081526020016000206040518060e00160405280336001600160a01b03168152602001886001600160a01b03168152602001878152602001868152602001858152602001428152602001841515815250908060018154018082558091505060019003906000526020600020906007020160009091909190915060008201518160000160006101000a8154816001600160a01b0302191690836001600160a01b0316021790555060208201518160010160006101000a8154816001600160a01b0302191690836001600160a01b0316021790555060408201518160020155606082015181600301556080820151816004015560a0820151816005015560c08201518160060160006101000a81548160ff021916908315150217905550505084866001600160a01b0316336001600160a01b03167f0343aa1e825c551f073388ffff3d84d5518f7027198fe78508725e98f1727c22868686426040516104f29493929190938452911515602084015215156040830152606082015260800190565b60405180910390a4505050505050565b6001600160a01b0381166000908152602081905260408120815b815481101561028c5781818154811061053757610537610968565b600091825260209091206006600790920201015460ff1680156105835750655af3107a400082828154811061056e5761056e610968565b90600052602060002090600702016004015410155b1561058f578260010192505b60010161051c565b6001600160a01b038116600090815260208181526040808320805482518185028101850190935280835260609492939192909184015b828210156106525760008481526020908190206040805160e0810182526007860290920180546001600160a01b039081168452600180830154909116848601526002820154928401929092526003810154606084015260048101546080840152600581015460a08401526006015460ff16151560c083015290835290920191016105cd565b505050509050919050565b6040805160e08101825260008082526020808301829052828401829052606083018290526080830182905260a0830182905260c083018290526001600160a01b0386168252819052919091208054839081106106bb576106bb610968565b60009182526020918290206040805160e081018252600790930290910180546001600160a01b039081168452600182015416938301939093526002830154908201526003820154606082015260048201546080820152600582015460a082015260069091015460ff16151560c0820152905092915050565b6001600160a01b03811660009081526020819052604081208190815b81548110156107f25781818154811061076a5761076a610968565b600091825260209091206006600790920201015460ff1680156107b65750655af3107a40008282815481106107a1576107a1610968565b90600052602060002090600702016004015410155b156107ea578360010193508181815481106107d3576107d3610968565b906000526020600020906007020160040154830192505b60010161074f565b5050915091565b80356001600160a01b038116811461081057600080fd5b919050565b6000806040838503121561082857600080fd5b610831836107f9565b946020939093013593505050565b60006020828403121561085157600080fd5b61085a826107f9565b9392505050565b600080600080600060a0868803121561087957600080fd5b610882866107f9565b9450602086013593506040860135925060608601359150608086013580151581146108ac57600080fd5b809150509295509295909350565b60018060a01b038082511683528060208301511660208401525060408101516040830152606081015160608301526080810151608083015260a081015160a083015260c0810151151560c08301525050565b6020808252825182820181905260009190848201906040850190845b8181101561094e5761093b8385516108ba565b9284019260e09290920191600101610928565b50909695505050505050565b60e081016101cf82846108ba565b634e487b7160e01b600052603260045260246000fdfea26469706673582212202b30ec19a2b992cc7102123bb99cd0956834136381eb5c168e3f9f1e9b5c0ffb64736f6c63430008130033",
  "linkReferences": {},
  "deployedLinkReferences": {}
}