{
  "_format": "hh-sol-artifact-1",
  "contractName": "CreditScorer",
  "sourceName": "src/CreditScorer.sol",
  "abi": [
    {
      "inputs": [
        {
          "internalType": "address",
          "name": "_registry",
          "type": "address"
        }
      ],
      "stateMutability": "nonpayable",
      "type": "constructor"
    },
    {
      "inputs": [],
      "name": "InvalidRegistry",
      "type": "error"
    },
    {
      "anonymous": false,
      "inputs": [
        {
          "indexed": true,
          "internalType": "address",
          "name": "agent",
          "type": "address"
        },
        {
          "indexed": false,
          "internalType": "uint256",
          "name": "score",
          "type": "uint256"
        },
        {
          "indexed": false,
          "internalType": "uint256",
          "name": "limitWei",
          "type": "uint256"
        },
        {
          "indexed": false,
          "internalType": "uint256",
          "name": "verifiedJobs",
          "type": "uint256"
        },
        {
          "indexed": false,
          "internalType": "uint256",
          "name": "totalSpendWei",
          "type": "uint256"
        },
        {
          "indexed": false,
          "internalType": "uint256",
          "name": "timestamp",
          "type": "uint256"
        }
      ],
      "name": "ProfileRefreshed",
      "type": "event"
    },
    {
      "inputs": [],
      "name": "LIMIT_PER_SCORE_POINT",
      "outputs": [
        {
          "internalType": "uint256",
          "name": "",
          "type": "uint256"
        }
      ],
      "stateMutability": "view",
      "type": "function"
    },
    {
      "inputs": [],
      "name": "MAX_LIMIT_WEI",
      "outputs": [
        {
          "internalType": "uint256",
          "name": "",
          "type": "uint256"
        }
      ],
      "stateMutability": "view",
      "type": "function"
    },
    {
      "inputs": [],
      "name": "MAX_SCORE",
      "outputs": [
        {
          "internalType": "uint256",
          "name": "",
          "type": "uint256"
        }
      ],
      "stateMutability": "view",
      "type": "function"
    },
    {
      "inputs": [],
      "name": "SCORE_PER_JOB",
      "outputs": [
        {
          "internalType": "uint256",
          "name": "",
          "type": "uint256"
        }
      ],
      "stateMutability": "view",
      "type": "function"
    },
    {
      "inputs": [],
      "name": "SPEND_DIVISOR",
      "outputs": [
        {
          "internalType": "uint256",
          "name": "",
          "type": "uint256"
        }
      ],
      "stateMutability": "view",
      "type": "function"
    },
    {
      "inputs": [
        {
          "internalType": "address",
          "name": "agent",
          "type": "address"
        }
      ],
      "name": "calculateScore",
      "outputs": [
        {
          "internalType": "uint256",
          "name": "score",
          "type": "uint256"
        },
        {
          "internalType": "uint256",
          "name": "limitWei",
          "type": "uint256"
        }
      ],
      "stateMutability": "view",
      "type": "function"
    },
    {
      "inputs": [
        {
          "internalType": "address",
          "name": "",
          "type": "address"
        }
      ],
      "name": "firstJobTimestamp",
      "outputs": [
        {
          "internalType": "uint256",
          "name": "",
          "type": "uint256"
        }
      ],
      "stateMutability": "view",
      "type": "function"
    },
    {
      "inputs": [
        {
          "internalType": "address",
          "name": "agent",
          "type": "address"
        }
      ],
      "name": "getProfile",
      "outputs": [
        {
          "components": [
            {
              "internalType": "uint256",
              "name": "score",
              "type": "uint256"
            },
            {
              "internalType": "uint256",
              "name": "limitWei",
              "type": "uint256"
            },
            {
              "internalType": "uint256",
              "name": "verifiedJobs",
              "type": "uint256"
            },
            {
              "internalType": "uint256",
              "name": "totalSpendWei",
              "type": "uint256"
            },
            {
              "internalType": "uint256",
              "name": "lastUpdated",
              "type": "uint256"
            }
          ],
          "internalType": "struct CreditScorer.CreditProfile",
          "name": "",
          "type": "tuple"
        }
      ],
      "stateMutability": "view",
      "type": "function"
    },
    {
      "inputs": [
        {
          "internalType": "address",
          "name": "agent",
          "type": "address"
        },
        {
          "internalType": "uint256",
          "name": "amountWei",
          "type": "uint256"
        }
      ],
      "name": "qualifies",
      "outputs": [
        {
          "internalType": "bool",
          "name": "",
          "type": "bool"
        }
      ],
      "stateMutability": "view",
      "type": "function"
    },
    {
      "inputs": [
        {
          "internalType": "address",
          "name": "agent",
          "type": "address"
        }
      ],
      "name": "recordFirstJob",
      "outputs": [],
      "stateMutability": "nonpayable",
      "type": "function"
    },
    {
      "inputs": [
        {
          "internalType": "address",
          "name": "agent",
          "type": "address"
        }
      ],
      "name": "refreshProfile",
      "outputs": [
        {
          "components": [
            {
              "internalType": "uint256",
              "name": "score",
              "type": "uint256"
            },
            {
              "internalType": "uint256",
              "name": "limitWei",
              "type": "uint256"
            },
            {
              "internalType": "uint256",
              "name": "verifiedJobs",
              "type": "uint256"
            },
            {
              "internalType": "uint256",
              "name": "totalSpendWei",
              "type": "uint256"
            },
            {
              "internalType": "uint256",
              "name": "lastUpdated",
              "type": "uint256"
            }
          ],
          "internalType": "struct CreditScorer.CreditProfile",
          "name": "profile",
          "type": "tuple"
        }
      ],
      "stateMutability": "nonpayable",
      "type": "function"
    },
    {
      "inputs": [],
      "name": "registry",
      "outputs": [
        {
          "internalType": "contract WorkRegistry",
          "name": "",
          "type": "address"
        }
      ],
      "stateMutability": "view",
      "type": "function"
    }
  ],
  "bytecode": "0x60a060405234801561001057600080fd5b5060405161085738038061085783398101604081905261002f91610067565b6001600160a01b038116610056576040516311a1e69760e01b815260040160405180910390fd5b6001600160a01b0316608052610097565b60006020828403121561007957600080fd5b81516001600160a01b038116811461009057600080fd5b9392505050565b6080516107976100c0600039600081816101c80152818161029d01526104b301526107976000f3fe608060405234801561001057600080fd5b50600436106100b45760003560e01c8063477b2f9611610071578063477b2f96146101865780635d0c09e51461018e5780636c35fb3a146101a35780637b103999146101c357806383965e6714610202578063889b65651461022557600080fd5b806309faa9a4146100b95780630f53a4701461011757806323e957b61461012a578063279011bd1461015257806327ff62231461016f578063285f85b114610178575b600080fd5b6100cc6100c736600461067c565b610232565b60405161010e9190600060a082019050825182526020830151602083015260408301516040830152606083015160608301526080830151608083015292915050565b60405180910390f35b6100cc61012536600461067c565b610400565b61013d61013836600461067c565b610488565b6040805192835260208301919091520161010e565b610161671bc16d674ec8000081565b60405190815260200161010e565b6101616103e881565b61016166071afd498d000081565b610161602881565b6101a161019c36600461067c565b610608565b005b6101616101b136600461067c565b60016020526000908152604090205481565b6101ea7f000000000000000000000000000000000000000000000000000000000000000081565b6040516001600160a01b03909116815260200161010e565b61021561021036600461069e565b610646565b604051901515815260200161010e565b610161655af3107a400081565b6102646040518060a0016040528060008152602001600081526020016000815260200160008152602001600081525090565b60008061027084610488565b60405160016282793360e01b031981526001600160a01b03878116600483015292945090925060009182917f00000000000000000000000000000000000000000000000000000000000000009091169063ff7d86cd906024016040805180830381865afa1580156102e5573d6000803e3d6000fd5b505050506040513d601f19601f8201168201806040525081019061030991906106c8565b915091506040518060a0016040528085815260200184815260200183815260200182815260200142815250945084600080886001600160a01b03166001600160a01b031681526020019081526020016000206000820151816000015560208201518160010155604082015181600201556060820151816003015560808201518160040155905050856001600160a01b03167fb00629075f723f855b9c8e6b6dab6d6114f177e053e6defa9ac811d4df2e71b485858585426040516103ef959493929190948552602085019390935260408401919091526060830152608082015260a00190565b60405180910390a250505050919050565b6104326040518060a0016040528060008152602001600081526020016000815260200160008152602001600081525090565b506001600160a01b031660009081526020818152604091829020825160a0810184528154815260018201549281019290925260028101549282019290925260038201546060820152600490910154608082015290565b60405160016282793360e01b031981526001600160a01b0382811660048301526000918291829182917f0000000000000000000000000000000000000000000000000000000000000000169063ff7d86cd906024016040805180830381865afa1580156104f9573d6000803e3d6000fd5b505050506040513d601f19601f8201168201806040525081019061051d91906106c8565b9092509050600061052f602884610702565b90506000610543655af3107a400084610719565b6001600160a01b03881660009081526001602052604081205491925090801561059757600062015180610576834261073b565b6105809190610719565b9050606481116105905780610593565b60645b9250505b6000826105a4858761074e565b6105ae919061074e565b90506103e881116105bf57806105c3565b6103e85b985060006105d866071afd498d00008b610702565b9050671bc16d674ec8000081116105ef57806105f9565b671bc16d674ec800005b98505050505050505050915091565b6001600160a01b0381166000908152600160205260408120549003610643576001600160a01b03811660009081526001602052604090204290555b50565b60008061065284610488565b841115925050505b92915050565b80356001600160a01b038116811461067757600080fd5b919050565b60006020828403121561068e57600080fd5b61069782610660565b9392505050565b600080604083850312156106b157600080fd5b6106ba83610660565b946020939093013593505050565b600080604083850312156106db57600080fd5b505080516020909101519092909150565b634e487b7160e01b600052601160045260246000fd5b808202811582820484141761065a5761065a6106ec565b60008261073657634e487b7160e01b600052601260045260246000fd5b500490565b8181038181111561065a5761065a6106ec565b8082018082111561065a5761065a6106ec56fea2646970667358221220cc40ec848df3fe6547ecdbf9e58251a9b1b8785676726d408d11e014c245d50c64736f6c63430008130033",
  "linkReferences": {},
  "deployedLinkReferences": {}
}